:100000000C9437030C9454030C9454030C94540331
:100010000C9454030C9454030C9454030C94540304
:100020000C9454030C9454030C941C340C94F0342E
:100030000C94702E0C9454030C9454030C9454039D
:100040000C9454030C9454030C9454030C945403D4
:100050000C9454030C94122F0C9454030C945403DA
:100060000C9454030C9454030C9454030C945403B4
:100070000C9454030C9454030C9454030C945403A4
:100080000C9454030C9454030C9454030C94540394
:100090000C9454030C9454030C9454030C94540384
:1000A0000C9454030C9454030C9454031E0020002D
:1000B000220000000000000000001F0021002300BB
:1000C000000000000000000029001A0015001C00BC
:1000D0000C001300000014000800170018001200A4
:1000E0002A0000002B00160009000B000E00330050
:1000F0002800040007000A000D000F003400000073
:10010000E1001B00190011003600380002511D00EB
:10011000060005001000370052000000E000E20079
:100120002C000000000050004F00015100002C0086
:100130002C00E600510000001E00200022000000FC
:100140000000000000001F0021002300000000004C
:10015000000000001E0020002200240026002D00C8
:1001600000001F0021002300250027002E000000B2
:100170002B00160009000B000E00330028000400BD
:1001800007000A000D000F0031000000E1001B0015
:10019000190011003600380002511D00060005004C
:1001A0001000370052000000E000E2002C000000C8
:1001B000000050004F00015100002C002C00E60010
:1001C000510000001E00200022000000000000007E
:1001D00000001F00210023000000000000000000BC
:1001E00029001A0015001C000C0013000000140068
:1001F00008001700180012002A0000002B0016004B
:1002000009000B000E0033002800040007000A005C
:100210000D000F0034000000E1001B001900110068
:100220003600380002511D0006000500100037009E
:1002300052000000E000E2002C000000000050002E
:100240004F0001510000005C2C00E600510000004E
:100250001E002000220000000000000000001F001F
:1002600021002300000000000000000029001A0007
:1002700015001C000C0013000000140008001700FB
:10028000180012002A0000002B00160009000B00C5
:100290000E0033002800040007000A000D000F00C4
:1002A00034000000E1001B00190011003600380086
:1002B00002511D000600050010003700520000002A
:1002C000E000E2002C000000000050004F0001514F
:1002D0000000005C2C00E60051000000000000005F
:1002E000000000002A2B2800000000000000000091
:1002F0000000000000000029000000002C1E342037
:10030000212224342627252E362D3738271E1F205C
:100310002122232425263333362E37381F040506A1
:100320000708090A0B0C0D0E0F10111213141516E5
:100330001718191A1B1C1D2F3130232D35040506E3
:100340000708090A0B0C0D0E0F10111213141516C5
:100350001718191A1B1C1D2F3130354C00000000D6
:10036000000000000000000000000000000000008D
:10037000000000000000000000000000000000007D
:100380007E0F00D4FFFFFFC700000078FD377A58CA
:100390005A000004E6D6B44602002101160000000F
:1003A000742FE5A3E0024F01055D003D8889865466
:1003B000A0BAD98FAB276724B0237736721CE2E04E
:1003C0003D671A7977A2F86AB958D03CDB356A5391
:1003D0004A24E4E8F680F683AC0F6C816B9DD4FE72
:1003E000CC4226BB8958FCE38CB2B46453CD675B26
:1003F000C811611A46FED23C0114377AA2D4CA2928
:10040000CBBF55F18514A96420FBF434798FD286D3
:10041000FA90BEED1B960B327A5D41461376396732
:10042000BE36D2F9B64121877CFFED12D9595D7AEB
:1004300027018331DAEC937D50AE0358F2FD267923
:10044000B24C6AA1AD7B18C4E6DD149C01E6C4F28F
:10045000A23F01A446069D442ED52C623A1FD9D84E
:10046000D78F8459ECB87957AA644D311C03CA530D
:1004700050339636EE7B20E591888230EFA8A68C2B
:10048000B395157F3CAE605036B5E13FD1A43167DE
:1004900038079A373B10911843F58C6214384B108B
:1004A0007DB5D0937633240748D0EAF71F96BA007B
:1004B00000000000EEDEC4678E60B6F90001A10204
:1004C000D0040000B354884AB1C467FB02000000A6
:1004D0000004595A01000100190500000200020041
:1004E00015050000030001001A05000004000200C9
:1004F000FF044F1F050001001B050000060002005D
:1005000001050000070002001705000008000100B7
:100510001C050000120002001D050000130002006F
:100520001F05000014000100210500001C037600D7
:10053000690061006C003A00660036003400630018
:1005400032006200330063000000100362006F009D
:100550006E007A006F007600320000000A0364002B
:1005600065006100720000000403090409025B00D9
:10057000030100A0FA0904000001030101000921A0
:100580001101000122400007058103080001090450
:1005900001000203000000092111010001222200D4
:1005A0000705820320000107050303200001090459
:1005B00002000103000000092111010001223200A4
:1005C00007058403200001120100020000000869F1
:1005D0006973730100010203010660FF0961A10153
:1005E0000962150026FF0095207508810209631530
:1005F0000026FF00952075089102C005010980A121
:1006000001850319012AB700150126B70095017568
:10061000108100C0050C0901A101850419012AA05F
:1006200002150126A002950175108100C00501097F
:1006300006A101050719E029E715002501950875B0
:100640000181029501750881010507190029FF152F
:100650000026FF0095067508810005081901290587
:10066000950575019102950175039101C000112452
:100670001FBECFEFDAE0DEBFCDBF11E0A0E0B1E0FA
:10068000E8EBFEE602C005900D92A63AB107D9F755
:1006900025E0A6EAB1E001C01D92A433B207E1F75C
:1006A0000E94FA150C942F370C9400009C013A9587
:1006B00021153F4150F5FC01EE27F170BC01662782
:1006C0007270AC01442754709C012227387094FF4B
:1006D0000EC080E1EF2B09F480E0672B09F0806207
:1006E000452B09F08064232B89F08068089581E010
:1006F000EF2B09F480E0672B09F08260452B09F0AD
:100700008460232B19F08860089580E00895CF93CA
:10071000DF93EB010E945603FE01DF91CF91099414
:10072000CF93DF93EC01805E9109089720F063E599
:1007300077E0209711F465E477E0CE010E9487030B
:100740008C2FDF91CF910C944906CF93DF93EC016E
:100750000E94D306CE01805E9109089720F06AE5D9
:1007600077E0209711F46CE477E0CE01DF91CF9130
:100770000C94870381E0089581E008950C94BC03F4
:1007800008950C94C0031F93CF93DF9300D000D043
:100790000F92CDB7DEB749835A836B833091A9019D
:1007A00089819A8131111DC06623B9F02223A9F0F5
:1007B0000E94520B182F682F89819A810E94F50A96
:1007C00069817A81812F0F900F900F900F900F9079
:1007D000DF91CF911F910C940D1E0E94250B182FB5
:1007E000EFCF0E94520B69817A81EDCFFC01262F59
:1007F00086819781009739F44081518162817381AC
:1008000084810C94C3030895CF93DF93EC0161E0DE
:100810000E94F603BE01DF91CF910C944126CF9345
:10082000DF93EC0160E00E94F603BE01DF91CF91FF
:100830000C94C103E1E0F0E0DF0102C0AA0FBB1F8E
:100840006A95E2F7BD01DF0102C0AA0FBB1F4A95FE
:10085000E2F76A2B01C0EE0F2A95EAF7962F98234C
:10086000961302C08E2B0895E0958E230895242FB1
:10087000462F682F8091C7010E941A040C94B20A77
:100880000C94AC140C94AF1408950E9471070E944C
:1008900044042FEF84E39CE0215080409040E1F736
:1008A00000C000000C94362F0F931F93CF93DF935B
:1008B000EC018B010E94842CB801CE010E946916C4
:1008C000882309F456C0B801CE010E94E31B882397
:1008D00009F44FC0B801CE010E94BE03882309F479
:1008E00048C0B801CE010E947329882309F441C091
:1008F000B801CE010E94CA2C8823D9F1B801CE01DB
:100900000E943A238823A9F1B801CE010E94CF2B7F
:10091000882379F1B801CE010E949A20882349F1F9
:10092000B801CE010E941628882319F1F8018281AE
:10093000882361F0CA35FDE5DF0721F170F4C115A8
:10094000ECE5DE07A1F0CE3DDC45C9F0C801DF9142
:10095000CF911F910F910C94BA03CB358DE5D80739
:10096000A1F0CC35DD4591F70E941411EFCF0E9424
:10097000450480E0DF91CF911F910F9108950E946F
:10098000CD11F7CF0E941D11E1CF0E942011DECFC3
:10099000CF93DF93EC0161E00E94F603BE01DF918B
:1009A000CF910C9454040E94552E0C94BC050E94C7
:1009B000BF050C94592EDF92EF92FF920F931F9375
:1009C000CF93DF93E82FF0E0E452FD4FD490282F2F
:1009D00026952695269530E0F901E458FC4F0491C0
:1009E000877010E0082E02C0159507950A94E2F76B
:1009F00001701127F901E459FC4FE490F12C082E05
:100A000002C0F594E7940A94E2F791E0E922FF240A
:100A1000F901E45AFC4FC491D0E002C0D595C795C6
:100A20008A95E2F7C170DD270115110519F081EEF5
:100A30000E944906E114F10419F086EE0E9449066D
:100A40008D2D0E943907EF2819F086EE0E94D306FB
:100A5000012B19F081EE0E94D306CD2B51F08CE2D0
:100A6000DF91CF911F910F91FF90EF90DF900C9449
:100A70003907DF91CF911F910F91FF90EF90DF9099
:100A80000895EF92FF920F931F93CF93DF93EC01A2
:100A9000162F0AE08881882309F454C0813009F0B8
:100AA0004EC08981813099F47E0122E0E20EF11C72
:100AB0008A810E943907E7012196812F815050F3E6
:100AC000EFE9FFE03197F1F700C00000F7CF823087
:100AD00041F47E0182E0E80EF11C8A810E94490601
:100AE000EACF833041F47E01E2E0EE0EF11C8A8110
:100AF0000E94D306E0CF843011F02196DDCF2A8109
:100B0000229690E080E0AE014F5F5F4F2053330BA1
:100B10002A30310548F0019778F2EFE9FFE031978C
:100B2000F1F700C00000F7CF089FB001099F700DDA
:100B30001124C901860F971F2981EA01E4CF0E9481
:100B4000DB04BACFDF91CF911F910F91FF90EF900F
:100B5000089560E00C94410508950C94AC0581E083
:100B600008950C94AF050895CF93C82F0E94AD054A
:100B70008C2FCF910C94B10580E00C94B4050E94A9
:100B8000A32D0C94B4050E94A32D9091A801981751
:100B900021F08093A8010C94B4050895019708F4FE
:100BA0000895EFE9FFE03197F1F700C00000F6CFBC
:100BB000CF93DF93CDB7DEB72D970FB6F894DEBF96
:100BC0000FBECDBF49875A876B877C878D878C8501
:100BD0009D85892B29F0CA0189238F3F09F04AC0DE
:100BE0008B8581110E9406101D821E821F8218862D
:100BF00085E0FE013996DE01119601900D928A95ED
:100C0000E1F78091980482FD12C0809101059091D6
:100C10000205892B61F00E94C20F882319F082E03F
:100C20000E94E3100E949E0F81110E9449108C8146
:100C30009D81892B99F429813A814B815C816D8159
:100C40007E818F8198850E94E70E2D960FB6F894CD
:100C5000DEBF0FBECDBFDF91CF91089589819A810C
:100C600089238F3F41F3CE0101960E940404811134
:100C7000E2CFEBCF8091AA019091AB0101969093C6
:100C8000AB018093AA01ACCFFC01808191810C94CF
:100C90007F0BCF93C82F882309F483C08238C1F417
:100CA0000E94A32D81FD7DC089E30E94870F0E94D1
:100CB00057102FEF81EE94E0215080409040E1F7F3
:100CC00000C0000089E30E948E0FCF910C94571052
:100CD0008338A1F40E94A32D80FD63C083E50E94A8
:100CE000870F0E9457102FEF81EE94E02150804033
:100CF0009040E1F700C0000083E5E5CF8438A1F41F
:100D00000E94A32D82FD4DC087E40E94870F0E94A0
:100D100057102FEF81EE94E0215080409040E1F792
:100D200000C0000087E4CFCF8CEF8C0F813A90F4A5
:100D30006C2F80910001909101010E94F82D882371
:100D400029F08C2F0E948E0F0E9457108C2F0E942A
:100D5000870FBBCF80E28C0F883048F4C77081E0EA
:100D600001C0880FCA95EAF70E94E60FAECFEBE507
:100D7000EC0FE33040F4F0E0EE5AFE4F808190E05B
:100D8000CF910C94BA2DC85AC73158F4EC2FF0E02B
:100D9000EE0FFF1FEC5DFE4F80819181CF910C948F
:100DA000D02DCF910895882309F44BC0823871F477
:100DB0000E94A32D81FF45C089E30E94870F0E94F6
:100DC000571089E30E948E0F0C945710833859F402
:100DD0000E94A32D80FF35C083E50E94870F0E94EB
:100DE000571083E5EFCF843859F40E94A32D82FF7A
:100DF00028C087E40E94870F0E94571087E4E2CF43
:100E00009CEF980F913AF0F290E2980F983050F4DE
:100E1000877091E001C0990F8A95EAF7892F0E94A7
:100E2000EC0FD2CF9BE5980F933020F490E080E058
:100E30000C94BA2D885A873120F490E080E00C940D
:100E4000D02D08951F93CF93DF93182FEB010E94AD
:100E50004906209731F4812FDF91CF911F910C9497
:100E6000D3068FE99FE00197F1F700C000002197BA
:100E7000F0CF60911F0570912005893321F06091BA
:100E80001D0570911E050C942207882321F00E94F5
:100E9000E60F0C9457100895882321F00E94EC0F60
:100EA0000C9457100895882321F00E94F90F0C9498
:100EB00057100895882321F00E94FF0F0C945710BB
:100EC000089590E080E00E94BA2D90E080E00E94BA
:100ED000D02D0E9406100C9457100E94950F0C9470
:100EE00061070E94F30F0C946D0792959F709630E6
:100EF00091F058F4925F9F70923058F4803F19F04F
:100F000030F4883E30F481E008959A5FF4CF843F56
:100F1000D1F380E00895883EB0F3813FD1F7F3CF5D
:100F2000FC0186819781009721F00E94AF120C94FA
:100F30007507808191810E947F0BF9CFBF92CF927C
:100F4000DF92EF92FF920F931F93CF93DF936C0189
:100F5000EB01FC010281158112951F700E94DC0FCC
:100F6000E82E8823B9F0E02E0023A1F08D2F807F9A
:100F7000803421F080E28C0F8830D0F0809198048A
:100F800082FD16C082E00E94E3100E94DC0F91E017
:100F9000E82EE926BD2EB2942FE0B222FBE0FB152D
:100FA00008F47CC0EB2DF0E0EF5CF84C0C94A2361A
:100FB000E12CF0CF2D2F2F70F22E8D2F807F19F086
:100FC000F29490EFF922002399F0FF2059F080E28B
:100FD0008C0F883010F0C11107C08F2D0E94E60FD2
:100FE0000E9457108C2F52C08F2D0E94F90FF8CFFE
:100FF0008C2F0E94D306FF2009F450C080E28C0F92
:10100000883010F0C11104C08F2D0E94EC0F03C076
:101010008F2D0E94FF0F0E94571040C03D2F3F7040
:10102000F32E8D2F807F803219F0F29480EFF8221A
:10103000CC23F1F0C13009F49BC0002309F4A4C013
:10104000112309F477C020E0F601408151816281CB
:10105000738184810E94C303B6010E944F208111D5
:10106000C1CFF601858180FFBDCF8F70858362C0BF
:101070008091980482FF41C0002359F0FF2029F09D
:101080008F2D0E94E60F0E94571080E00E944906B3
:1010900005C080E00E94D306F110B6CFEB2DE850DA
:1010A000FF0B349720F40E94A32D0E94B405CE01BB
:1010B0000E9475078111A0C11092AB011092AA0184
:1010C000EE2009F4BAC10E94BE0F80FDB6C1F60140
:1010D00012820E94B80F0E94C30AC6010E94450AEC
:1010E0000E94B80FDF91CF911F910F91FF90EF9069
:1010F000DF90CF90BF900C94CE0A0023E9F011113D
:1011000006C00E9415108F290E944507C7CF1130D5
:1011100031F40E9415108F290E943110BFCF8091A9
:101120001B05823070F38113ECCF0E9449108F2D84
:101130000E941B108F2DE8CF111106C00E9449108C
:101140008F2D0E944C07AACF80911B05113059F4B6
:10115000823008F4A3CF0E94E30F8F2109F49ECFC1
:101160000E942410EBCF823048F31813E7CF96CFBC
:1011700080912105002321F0811708F48FCFDACF69
:10118000181708F08BCFDCCF1123D1F280911F0507
:1011900090912005C93321F080911D0590911E0585
:1011A0000E94CE058C2F0E94D30678CF8D2F869576
:1011B0008695837061F0813009F070CFCE01937015
:1011C000011102C090E080E00E94D02D67CFCE01D7
:1011D0009370011102C090E080E00E94BA2D5ECFB2
:1011E0008D2F837081F5011159CF4C2F4295469573
:1011F0004770440F440F8C2F8F70042E01C0880F4E
:101200000A94EAF72C2F2071C4FF07C02FE030E0CA
:1012100001C0220F4A95EAF720959D2F9695969545
:101220009370822B923049F058F4913019F00E945B
:10123000A40A34CF0E949F0A31CF0E94A90A2ECF60
:101240000E949D0A2BCF8695002311F08D2F81706F
:10125000882309F423CF4C2F429546954770440FBD
:10126000440F8C2F8F70042E01C0880F0A94EAF768
:101270002C2F2071C4FF07C02FE030E001C0220FE7
:101280004A95EAF720959D2F969596959370822B17
:10129000923049F058F4913019F00E94EA0AFECEDB
:1012A0000E94E50AFBCE0E94EF0AF8CE0E94B20A25
:1012B000F5CEFD2FFF70FF2E002329F08F2F0E9407
:1012C000C30A8C2F21CF8C2F0E944C078F2D0E9498
:1012D000CE0AE4CEC23F51F160F4C03FB9F0C13F45
:1012E00081F0002309F483C011117CCE8D2F8F7102
:1012F00021C0C33F11F1C43FA1F78091980482FF40
:1013000026C08D2F8F71002311F314C08091210509
:10131000002341F0181708F0C1CE8D2F8F710E9465
:10132000DA0ABCCE811708F4B9CEF7CF8D2F8F71B2
:101330000111CDCF0E94C30AB1CE002329F08D2F19
:101340008F710E94BB0AAACE0E94B80AA7CE8091D4
:101350001B058230A8F10023F9F00E949B0F0E9428
:10136000EC0F0E94BE0F843041F40E94DA108D2FE2
:101370008F710E94CE0AE12C91CE80911B05181727
:10138000D0F72D2F2F71F22E822F0E94C30A63E017
:101390008F2D0E94BE10EFCF0E949B0F0E94E60F80
:1013A00080911B05181740F00E94DA100E9424104B
:1013B00064E08D2F8F71EDCF81E00E94E310DBCFD1
:1013C000002359F03D2F3F71F32E832F0E94C30A53
:1013D00063E08F2D0E94BE1061CE81E00E94E31079
:1013E000123008F45BCE82E00E94E31057CE111158
:1013F000CDCE8D2F8F716BCF002319F011115CCEE4
:101400005FCE111159CE20E0F601408151816281F9
:10141000738184810E94C303B6010E945A208823ED
:1014200009F44ACE8091AA019091AB01029709F08C
:1014300043CE8C2F0E9439073FCEDF91CF911F9171
:101440000F91FF90EF90DF90CF90BF9008950F9392
:101450001F93CF93DF93EC018E819F81009779F0EA
:101460000E94AF128C010E94F40A0E949C0AB801EB
:10147000CE01DF91CF911F910F910C949E0768814F
:1014800079818A810E94890BEDCFCF93DF93EC01A4
:101490008B819C81892B29F08881998189238F3FB9
:1014A00059F4DF91CF910895CE010E94270ACE0111
:1014B000DF91CF910C940F04CE010E94C8048111DA
:1014C000F3CF0E94DC0F882361F38A81882349F3DC
:1014D0008091980482FDE5CF82E0DF91CF910C945A
:1014E000E310CF93DF9300D000D00F92CDB7DEB7DB
:1014F0000F900F900F900F900F90DF91CF91089564
:10150000CF93DF93CDB7DEB728970FB6F894DEBF41
:101510000FBECDBF28960FB6F894DEBF0FBECDBF6D
:10152000DF91CF91089508950C94930A0E94940A34
:101530008093C8010C94610708950C94960A9091C9
:10154000C801892B0C94960A9091C80189230C94A8
:10155000960A9091C80189270C94960A0C94930AD4
:101560000C94AE0A0E94B00A8093C7010C946107E4
:1015700080E00C94B20A91E001C0990F8A95EAF7D5
:10158000892F0C94B20A21E030E001C0220F8A9525
:10159000EAF78091C701822B0C94B20A21E030E077
:1015A00001C0220F8A95EAF720958091C701822316
:1015B0000C94B20A21E030E001C0220F8A95EAF7CC
:1015C0008091C70182270C94B20A9091C701892BA0
:1015D0000C94B20A9091C70189230C94B20A90919D
:1015E000C70189270C94B20A08959E3F69F1E82F3C
:1015F00027E0929FE00D11248E2F877041E001C0FB
:10160000440F8A95EAF7E695E695E69583E0E89F2C
:10161000F0011124E455FE4F30E020E070E05191DC
:10162000DF011197CB01022E02C0969587950A948F
:10163000E2F7817081958527842385278C932F5F1E
:101640003F4F2330310559F708959E3F49F1E82F68
:1016500027E0929FE00D11249E2F9770E695E69566
:10166000E69583E0E89FF0011124E455FE4F50E039
:1016700040E080E0219130E0092E02C036952795A8
:101680000A94E2F721703327042E01C0220F0A9436
:10169000EAF7822B4F5F5F4F4330510559F70895AA
:1016A00080E00895CF92DF92FF920F931F93CF9324
:1016B000DF936C010091C7018091C801082BC7E03E
:1016C000D0E010E0FC2EC8010C2E02C09595879545
:1016D0000A94E2F780FD0CC02197A0F7F12C8F2D22
:1016E000DF91CF911F910F91FF90DF90CF900895E0
:1016F000B6018C2F0E949913019771F3F0CFCF930D
:10170000DF93EC010E94520BBE01DF91CF910C944C
:1017100099131F93CF93DF93EB019091A901992324
:1017200031F0CB01DF91CF911F910C947F0B882377
:1017300079F0CB010E94520B182F682FCE010E9426
:10174000F50ABE01812FDF91CF911F910C9499135F
:10175000CB010E94250B182FF4CFCF93DF93C091BC
:10176000C9018091CA018C1303C0DF91CF91089504
:10177000D0E0FE0183E0EE0FFF1F8A95E1F7E5530D
:10178000FE4F208131814281538164817581868140
:1017900097810E94800A2196C770E3CF20910B02A7
:1017A00030910C0240910D0250910E0260910F0297
:1017B0007091100280911102909112020C94800A93
:1017C0002091C9019091CA01291302C080E00895B7
:1017D00030E0F90153E0EE0FFF1F5A95E1F7E553B2
:1017E000FE4F5181561306C05081581303C05281D9
:1017F000541304C02F5F3F4F2770E6CF81E0089558
:10180000EF92FF920F931F93CF93DF93809110027B
:10181000807F31F480910D02C091C901811119C0FE
:10182000DF91CF911F910F91FF90EF90089520913C
:101830000E0230910F02D0E02115310541F0809168
:101840000B0290910C02482F49234F3F39F4219607
:10185000C7708091CA018C13EACFE2CF8E0143E0BA
:10186000000F111F4A95E1F7F801E553FE4F418142
:101870004913EDCF90819813EACF82818111E7CF90
:10188000E380F480E21AF30A60E08BE092E00E94C9
:10189000F6036BE072E00E944620E816F906B8F6FF
:1018A000809110028F70806180931002F801E053E4
:1018B000FE4F80818F70806180838BE092E00E9478
:1018C000450ADF91CF911F910F91FF90EF900C94FB
:1018D000AD0B4F925F926F927F928F929F92AF92D9
:1018E000BF92CF92DF92EF92FF920F931F93CF930D
:1018F000DF93CDB7DEB765970FB6F894DEBF0FBEA6
:10190000CDBF8C0185E0F801DE01519601900D926A
:101910008A95E1F7D8014C9011965C901197129638
:101920007C9012971396ED90FC9060E08BE092E033
:101930000E94F6036C018BE0882E82E0982E2091A5
:101940000E0230910F022115310541F080910B02FA
:1019500090910C0289238F3F09F0E5C171100DC1F0
:10196000C8010E94450A7FC06BE072E0C6010E9478
:101970004B2081110BC2EF2829F0852D84218F3F48
:1019800009F011C180E0B82FB170EB2E80FF29C0A3
:10199000472D652D842D0E94E00BF82E811121C06A
:1019A000498A5A8A89899A890E947F0B292F229510
:1019B0002F70223050F0243078F49F7051F0F801ED
:1019C0009581907F31F46F2C1AC19F7011F088239C
:1019D000D1F3805E8830B8F3C8010E94450AFE2C1E
:1019E000F2CF772009F40BC18091100281608093BF
:1019F0001002612C04C1892B49F080910B02909157
:101A00000C02282F29232F3F09F011C1C8010E9481
:101A10009007882309F4A4CF772009F4A1CF8091FF
:101A200010028032A0F020910B0230910C023A8714
:101A300029871B86FD86EC868E8780911102909106
:101A40001202988B8F87CE0109960E94450A88E082
:101A5000F801ABE0B2E001900D928A95E1F70E94A7
:101A6000000C0E94CE0B66246394C9C0211112C0E1
:101A70007E2DFD8AEC8AA201672D8D890E94710A54
:101A80008BE092E00E94450A88E0F40111928A9569
:101A9000E9F79AC180910E0290910F02892B49F0CB
:101AA00080910B0290910C02282F29232F3F09F0DF
:101AB000E6C0C8010E949007882309F451CF77201F
:101AC00009F44ECF80911002803208F220910B026F
:101AD00030910C023A8329831B82FD82EC828E8333
:101AE000809111029091120298878F83CE01019606
:101AF000ACCF60E08BE092E00E94F6036BE072E016
:101B00000E944620A816B90650F5672C772009F4E4
:101B100027CF80910E0290910F02892B49F080917E
:101B20000B0290910C02282F29232F3F09F0CDC0E2
:101B3000C8010E94900781118ACF809110028160B4
:101B400080931002C8010E94450A59C088E0F8013C
:101B5000ABE0B2E001900D928A95E1F750C07E2D86
:101B6000FD8AEC8AA201672D8D890E94710A88E0A6
:101B7000F40111928A95E9F77FC0C8010E9490078D
:101B8000682E882309F4ECCE88E0F801ABE0B2E0DF
:101B900001900D928A95E1F78BE092E00E94440655
:101BA0000E94000C69C081E08725EDCE81E0872589
:101BB000F6C0D80111962C912913DFC0F80190814D
:101BC0009813DBC020911102309112028681978117
:101BD0002817390709F0D1C07110CFC080911002C9
:101BE0008F708061809310020E94CE0B8BE092E098
:101BF0000E94450A80911002D80115968C93862D7B
:101C000065960FB6F894DEBF0FBECDBFDF91CF91C2
:101C10001F910F91FF90EF90DF90CF90BF90AF900A
:101C20009F908F907F906F905F904F900895F801F4
:101C300021812913EBCED8019C919813E7CE2091F6
:101C400011023091120216968D919C9117972817C8
:101C5000390709F0DBCE809110027110D7CE1596AE
:101C60008C93C8010E94450A88E0F801ABE0B2E01D
:101C700001900D928A95E1F70E94CE0BC0CFD8015A
:101C800011962C91291315CFD8019C91981311CF3F
:101C9000209111023091120216968D919C91179706
:101CA0002817390709F005CF711003CF8091100272
:101CB00015968C93C8010E94450AEBE0F2E088E09B
:101CC000DF011D928A95E9F79ACFF8012181291346
:101CD0002FCFF801908198132BCF209111023091D2
:101CE0001202868197812817390709F021CF6BE00E
:101CF00072E0C6010E945420811128CF8091100209
:101D000080FD24CF982F907F09F420CFD80115961D
:101D10008C931597903F09F4A4CF982F907F905FF4
:101D20008F70892B9CCF60900D025701A21AB30AC5
:101D3000662009F4DECE60E08BE092E00E94F603BC
:101D40006BE072E00E94462020911002207FA816CE
:101D5000B90608F08BCE80910E0290910F022111EE
:101D60004ACE672C892B49F080910B0290910C028E
:101D7000282F29232F3F09F01CCF6BE072E0C6010A
:101D80000E944620843F914008F4EECDE114F10416
:101D900029F0852D84218F3F09F008CF80E080FF56
:101DA000EACD472D652D842D0E94E00B882309F490
:101DB000E2CD8BE092E00E94450A88E0EBE0F2E0A1
:101DC000DF011D928A95E9F70E94CE0B12CECF93C8
:101DD000DF93CDB7DEB760970FB6F894DEBF0FBEC6
:101DE000CDBF29873A874B875C876D877E878F8732
:101DF000988BCE0109960E94690C8823D1F08C85BE
:101E00009D85892B39F029853A85822F83238F3F41
:101E100009F074C08091C9019091CA01891348C02A
:101E200060960FB6F894DEBF0FBECDBFDF91CF91A5
:101E3000089588E0FE013996DE01119601900D9219
:101E40008A95E1F78C859D85892B21F389859A8573
:101E500089238F3FF9F2A091CA01B0E0CD0101962C
:101E6000877099272091C9012817190671F40E94DB
:101E700071071092CA011092C90188E0EBE0F2E00C
:101E8000DF011D928A95E9F7C5CF93E0AA0FBB1F2A
:101E90009A95E1F7A553BE4F98E0FE013196019067
:101EA0000D929A95E1F78093CA010E94AD0BB2CFD3
:101EB000B8E08B9FC001112485539E4F0E94690C8E
:101EC000882309F4ADCFE091C90128E0E29FF00139
:101ED0001124E553FE4F2081318142815381648179
:101EE0007581868197810E94800A8091C90190E066
:101EF0000196877099278093C9018CCF4B855C85AB
:101F00006D857E858F8598890E94800A83CF682F92
:101F100080910001909101010C942E2E682F8091E8
:101F20000001909101010C94302E8091000190915C
:101F300001010C94322E80912002089580910105B8
:101F400090910205892B89F00E94CF2E20911E02CC
:101F500030911F02AC01421B530B81E0209101051F
:101F6000309102054217530708F480E0817008950C
:101F700080911D02859585958595089580911D0216
:101F8000877008950E94CF2E20911B0230911C0271
:101F9000821B930B20910105309102058217930754
:101FA00048F080911D0282FB882780F991E0892703
:101FB0008170089580E0FCCF90911D02977081E0C0
:101FC00009F480E0089580912D02089590912D02EA
:101FD000892B80932D020895809590912D0298234E
:101FE00090932D02089510922D02089580912C0255
:101FF000089590912C02892B80932C02089580954E
:1020000090912C02982390932C02089510922C0208
:10201000089580932B02089510922B0208958093C7
:102020002A02089510922A020895809121020895AB
:1020300008950C94181090912002981721F0809325
:1020400020020C941910089580912002882329F011
:102050001092200280E00C941910089508950C94B9
:102060002E10CF93C82F8091980482FD10C08091CC
:1020700021028C1761F00E94CF2E90931F02809353
:102080001E02C09321028C2FCF910C942F10CF9160
:10209000089580912102882349F010922102109224
:1020A0001F0210921E0280E00C942F100895CF930F
:1020B000DF93E0910001F091010180912D02808376
:1020C000E0910001F0910101808190912C02892B17
:1020D0008083809121028823E9F08091010590910D
:1020E0000205892B29F00E949E0F81110E94491040
:1020F000E0910001F0910101808190912102892BF2
:10210000808380910001909101010E94E62D811150
:102110000E944910E0910001F091010180912A0292
:10212000982F9095808189238083E0910001F09120
:102130000101808190912B02892B8083C091000145
:10214000D091010148E050E063E172E0CE010E94CD
:10215000B836892B69F088E0FE01A3E1B2E0019076
:102160000D928A95E1F7CE01DF91CF910C94AF2DBE
:10217000DF91CF91089508950C94BB10909198042D
:1021800092FD16C098E0899F90011124622B609304
:102190001D020E94C30A0E94CF2E90931C028093BE
:1021A0001B0280911D028595859585950C94BC1028
:1021B0000C94C30A10921D0210921C0210921B0272
:1021C00080E00C94BC1090911D028095892380932F
:1021D0001D02282F277091F4282F082E000C330B96
:1021E0009217130659F09091980492FD07C08595B7
:1021F000859585950E94CE0A0C94DA1008959091E9
:10220000980492FB222720F9281769F080FB92F9A5
:102210009093980480919704909198040E944A1199
:1022200082E00C94E31008958091980482FB882743
:1022300080F991E089270C94FF1081E00C94FF1045
:1022400080E00C94FF106FEF7FEF90E080E00C9443
:10225000113790E080E00E94ED36893E9E4F11F4E8
:102260000C94071680E0089582E090E00C94E53627
:1022700083E090E00C94E536CF9384E090E00E94F8
:10228000E536C82F82E290E00E94E536982F8C2F29
:10229000CF910895CF93C92F682F84E090E00E94DA
:1022A000F3366C2F82E290E0CF910C94F336AB01C1
:1022B000BC018FE090E00C940537AB01BC0183E1D9
:1022C00090E00C94053760E070E0CB010C945D1158
:1022D00060E070E0CB010E9457110C94631169EE2D
:1022E0007EEF90E080E00E94113760E082E090E0B5
:1022F0000E94F33660E083E090E00E94F336109293
:10230000C80160E084E090E00E94F33660E082E281
:1023100090E00E94F33660E085E090E00E94F336A2
:1023200060E086E090E00E94F3366FEF87E090E097
:102330000E94F33640E050E0BA0188E090E00E944D
:10234000053760E08DE090E00E94F33640E050E019
:10235000BA0188E190E00E94053760E087E190E0F3
:102360000E94F33640E050E0BA018CE190E00E9418
:10237000053770E060E080E290E00E94113740E0B5
:1023800050E0BA0188E190E00E94053780E00E94A9
:1023900020160E944D160C9468110C946F11682F32
:1023A0008EE090E00C94F3360E94DB2E60933C02AA
:1023B00070933D0280933E0290933F0260933802F7
:1023C0007093390280933A0290933B02089585B747
:1023D000806885BF85B7806885BF08950895089592
:1023E0000C94EF1108950C94F2110E94E71187E705
:1023F00094E10E94992D0E94F7180E94711F0E947B
:10240000EE110C94F01181E008950C9403120895DC
:1024100008950E9407120C9408120E9491140C94C3
:10242000B3050E94C62E0E945C160E9457150E949A
:102430000D120C94F3119F92AF92BF92CF92DF9244
:10244000EF92FF920F931F93CF93DF93CDB7DEB739
:102450002A970FB6F894DEBF0FBECDBF0E946C1551
:10246000C82E81110E94D4118EE2A82E82E0B82ECF
:1024700010E000E0902E802F0E94B114E82EF501AC
:10248000F1905F01F81609F445C08091400281FD8A
:102490000E94B7148F2D8E25D12CFF24F394982FF2
:1024A0009F2199F10E940512882399F0DE829F8274
:1024B000EF2081E009F480E088870E94CF2E8160C0
:1024C000782F9A8789874E815F8168858A850E94E7
:1024D000D805F801E25DFD4F8081F826F08281E0A9
:1024E000C11001C080E02A960FB6F894DEBF0FBE7F
:1024F000CDBFDF91CF911F910F91FF90EF90DF90B3
:10250000CF90BF90AF909F900895D394FF0CF7E0C9
:10251000DF12C5CF0F5F1F4F0A30110509F0AACF98
:102520008FEF89838A831B820E94CF2E8160782F50
:102530009D838C8349815A816B818D810E94D8054E
:10254000CECF0E9437290E94252D0E94FD250C9494
:1025500001230E941B120E94A1120C94C305CF9369
:10256000DF930E949D13EC01811522E59207E8F5A7
:10257000811531E5930708F0ACC0883E910510F550
:10258000803E910570F5883A910570F4853A910581
:1025900008F078C08130910521F1009711F104977E
:1025A00000F5D0E0C0E01DC08F3B9105D0F7C85AC0
:1025B000D0E0CC0FDD1FCB5ADE4F0990D881C02D63
:1025C000D4640FC0811540E5940708F066C0C115BA
:1025D00080E4D80708F05EC0CE019A9581159F412E
:1025E00000F7CE01DF91CF910895811536E593076D
:1025F00018F5811545E5940708F083C0C11584E5F9
:10260000D80708F079C09C2F969596959E01237067
:102610003327C115D34508F461C0C1E0D0E002C042
:10262000CC0FDD1F2A95E2F730E2939FC001112401
:10263000C82BD92BDA68D5CFC1158AE5D80778F42D
:10264000C11599E5D90708F066C0C11528E5D2077C
:1026500008F4A7CFDC2FCC27C06FD06AC2CFCE0141
:1026600090568115904208F09CCF8D2F8F710E945B
:10267000341490E0982F882788279F719C012C2B79
:10268000E90147C0C55AD0E0CD57DE4FC881D0E040
:10269000D064A7CFDF70D06AA4CFE4E09695879589
:1026A000EA95E1F783702C2F26952695237040E25A
:1026B000249F90011124382B8C2F8370C1E0D0E02F
:1026C00002C0CC0FDD1F8A95E2F7C22BD32BDC684A
:1026D00088CFD82FCC27C16FD06A83CFC1E0D0E09C
:1026E00002C0CC0FDD1F2A95E2F720E2929FC001C5
:1026F0001124C82BD92BEBCFDC2FCC27C46FD06A89
:1027000070CF0E943414C82FD0E0DC2FCC27CC2708
:10271000DF71D06266CF8C2F8F700E94341434E04A
:10272000D695C7953A95E1F7CF709C2FEC01D0690B
:1027300058CF0E940D1E0C94AF1282389105B1F152
:10274000B0F48133910509F475C048F489329105DC
:1027500009F469C08A32910509F473C0089585337C
:10276000910509F459C08933910501F10895833E1B
:102770009105A9F138F4803E9105F9F0823E91056A
:1027800049F10895863E9105A9F1873E9105C9F169
:10279000843E910519F52091980421FF1FC0809176
:1027A000970484FD14C087EE90E00895209197046B
:1027B0002370A1F080EE90E008952091970420FD11
:1027C00047C03091980430FF09C024FF44C090E016
:1027D00080E004C02091970422FDF7CF0895209156
:1027E000970422FD3BC03091980430FDE3CF24FFD5
:1027F000F5CFEDCF2091970423FFF0CF24FDE7CF55
:10280000D2CF2091970423FD2CC03091980431FF42
:10281000EECF84EE90E008952091970425FFDECF5F
:1028200089E290E008952091970425FFD7CF85E3B2
:1028300090E008952091970426FFD0CF8AE290E09F
:1028400008952091970426FFC9CF81E390E0089571
:1028500089E390E0089583EE90E0089582EE90E0A1
:10286000089586EE90E008959091970492FF06C037
:10287000282F28712830F9F4877F846093FF06C0E1
:10288000282F28712831F1F4877E846120919804E3
:1028900020FF06C0382F38713830D9F4877F816027
:1028A00021FF06C0282F28712831D1F4877E81614D
:1028B00094FD877E0895282F24712430F9F68B7FAC
:1028C0008860DCCF282F2471243101F78B7E88614A
:1028D000DDCF382F3171313019F78E7F8860E0CF2E
:1028E000282F2171213121F78E7E8861E1CF80E090
:1028F00008950C9423110E946C158FE39CE90197B5
:10290000F1F700C000000E946C1580E00E94B11435
:1029100080FF04C00E9479140C94362F08950C9403
:102920007B140E942911811102C00E94CD110E94C6
:102930003411809340020E943C119093980480933C
:1029400097040E948F140E9438110E949D0A809162
:10295000C7010C94B00A08950C94AB1408950C941C
:10296000AE14E82FF0E0ED55FB4F808108950895F7
:1029700080EA8A95F1F7089500C008950C94B81480
:10298000F894E82FE295EF70F0E031A1282F2F7036
:1029900081E090E001C0880F2A95EAF7982F909582
:1029A000932391A392A1892B82A378940895CF9326
:1029B000DF93CDE8D1E089918F3F11F00E94C014E0
:1029C00081E0C739D807B9F7C6E8D1E089918F3FD0
:1029D00011F00E94C01481E0CD38D807B9F7DF911B
:1029E000CF910895CF92DF92EF92FF920F931F93B2
:1029F000CF93DF93EC01D62E062F10E0C80183574A
:102A00009E4F7C01FC0180818F3F09F445C0F89402
:102A1000E82FE295EF70F0E091A18F7021E030E0B7
:102A200001C0220F8A95EAF7892F822B81A382A108
:102A30002095282322A378940E94BC14E6E8F1E0B4
:102A40004DE851E031E0C12C21912F3F71F1A22FCF
:102A5000A295AF70B0E090968C9190E02F7002C07C
:102A6000959587952A95E2F780FD1FC0832FC82A88
:102A7000330F4E175F0741F7F70180818F3F11F049
:102A80000E94C01461E0C11001C060E08D2D0E9461
:102A9000BE14C00FD11FC882DF91CF911F910F913B
:102AA000FF90EF90DF90CF90089580E0E0CF0E94FC
:102AB000D7148AE0E3EAF4E0DF01982F1D929A959B
:102AC000E9F7E9E9F4E0DF011D928A95E9F78AE088
:102AD0000E94B7150C944004FF920F931F93CF935D
:102AE000DF93CDB7DEB72A970FB6F894DEBF0FBEDF
:102AF000CDBF8E010F5F1F4F8AE0F80111928A95BA
:102B0000E9F7F12C6F2DC8010E94F214F394FAE05A
:102B1000FF12F8CF4AE050E0B80189E994E00E9442
:102B2000B836FF24F394009709F4F12C892B41F077
:102B30008AE0F801A9E9B4E001900D928A95E1F7E5
:102B40002F2D4AE063EA74E089E994E00E94B81509
:102B50000E9442048F2D2A960FB6F894DEBF0FBE56
:102B6000CDBFDF91CF911F910F91FF9008950895F0
:102B7000FF920F931F93CF93DF93F82E092F162FF9
:102B8000D72FC42F222349F081E0809343020E9473
:102B9000CF2E90934202809341028091430288237A
:102BA000A1F080914102909142020E94E72E059788
:102BB00060F0EF2DF02FA12FBD2FCE0FDF2FD11DF5
:102BC000EC17FD0741F410924302DF91CF911F9162
:102BD0000F91FF90089581918D93F2CF0E94EB3079
:102BE0000E9411120C94F7300E94FB300E94A9122F
:102BF0000C9415310E946F2E0E94D2300E94F51164
:102C00000E94EE150E94F4150E940912FBCF83E288
:102C100090E00E94E536833689F484E290E00E94D9
:102C2000E5368B3159F485E290E00E94E53691E07B
:102C3000803909F090E0892F8170089580E0FCCF01
:102C4000CF93C82F6FEF811163E683E290E00E947B
:102C5000F3366FEFC1116BE184E290E00E94F3362E
:102C60006FEFC11160E985E290E0CF910C94F336EB
:102C7000089586E290E00E94E536682F70E090E0CB
:102C800080E008950895CF93C62F0E9442166C2FBE
:102C900086E290E0CF910C94F33680E00E942016FB
:102CA00060E070E0CB010E9443160E94171D0E9455
:102CB0007E1E81E00C9420160E9438160E94391660
:102CC0000E9442160E940716811102C00C944D16F4
:102CD0000895CF93FB01C281CC2309F19C012251BD
:102CE0003F452031310520F582510E948E1EC0E003
:102CF0008C2FCF91089581E00E94C30A43E062E0E7
:102D000081E00E943704F3CF81E00E94CE0A43E0C5
:102D100062E081E00E943704EBCF82E0F6CF8031A1
:102D2000FFE59F0789F381319F45B9F3C1E0E0CF0B
:102D30008031EFE59E07F9F281319F45C9F682E0C7
:102D4000DBCF2FEFFC0120830895EF92FF920F93CA
:102D50001F93CF93DF93EC01062F88812091CB0343
:102D60003091CC03232B79F08E3F09F057C0898135
:102D7000833020F08550833008F050C0602FCE01A2
:102D80000E94FD184BC08C3009F4A1C0D0F48430EF
:102D900009F484C060F4823009F44AC008F071C0BC
:102DA0008130C9F1602FCE010E94A11637C0863054
:102DB00009F48AC008F47DC08A30A0F78FEF8883B9
:102DC0002DC0803109F4A0C0D8F48E3009F48BC036
:102DD00008F481C08091040190910501892BF1F0E4
:102DE0006B8170E06D317105C8F489819A81AE0103
:102DF0004C5F5F4F9827892798270E94541E0EC06A
:102E0000823109F487C008F482C0833109F493C089
:102E10008E3F41F6B3CF198289E08A83602FCE01BD
:102E2000DF91CF911F910F91FF90EF900C94AB2FFA
:102E30008981823071F0833079F0813009F0B2CF2E
:102E40000E94DB2E0E94A8366A837B838C839D833D
:102E5000E5CF0E943916F6CF8091040190910501CB
:102E6000892BE1F27E0182E0E80EF11C10E0812F57
:102E70000E94B114F70181937F011F5F1A30B9F7E7
:102E8000CDCF8981823009F08DCF6A817B818C81A1
:102E90009D810E94A8360E944316C0CF4B816A8153
:102EA00089810E94441C9827892798279D838C83B9
:102EB000B5CF2C813D813227232732274B816A8170
:102EC00089810E94661CAACF0E94171DA7CF0E946D
:102ED000291E8983A3CF0E942B1E98278927982714
:102EE0009A8389839BCF6B8170E06D31710508F007
:102EF00095CF89819A81AE014C5F5F4F98278927D2
:102F000098270E942E1E8ACF0E947E1E87CF0E9485
:102F1000321CDFCF6B8170E06D31710508F07ECF20
:102F200089819A81AE014C5F5F4F98278927982746
:102F30000E94B31D73CF6B8170E06D31710508F095
:102F40006DCF89819A81AE014C5F5F4F98278927A9
:102F500098270E94D91D62CF8F929F92AF92BF9205
:102F6000CF92DF92EF92FF920F931F93CF93DF9355
:102F7000CDB7DEB72A970FB6F894DEBF0FBECDBF30
:102F800007E013E0F12CE12C89EBC82E8BE1D82E61
:102F90009DE3A92E9BE1B92E28EC822E2AE1922EE8
:102FA000F801D182C082B382A28295828482F58A9E
:102FB000E48ABE016F5F7F4F8E2D0E949F1C892B7C
:102FC00029F489859A85F801938B828BFFEFEF1A9C
:102FD000FF0A0A5E1F4F88E0E816F10409F72A96F7
:102FE0000FB6F894DEBF0FBECDBFDF91CF911F911A
:102FF0000F91FF90EF90DF90CF90BF90AF909F9098
:103000008F900895CF92DF92EF92FF921F93CF930C
:10301000DF93CDB7DEB72A970FB6F894DEBF0FBEA9
:10302000CDBFEDEAF4E080E5DF011D928A95E9F776
:10303000EFECF2E088E3DF011D928A95E9F78DEA73
:10304000C82E84E0D82E7F0110E0F701D182C08223
:10305000BE016F5F7F4F812F0E94C71C892B79F4BF
:1030600088E0FE013196D60101900D928A95E1F734
:1030700089859A85D70113969C938E931297BAE00F
:10308000CB0ED11CE7E0EE0EF11C1F5F1830E9F605
:103090002A960FB6F894DEBF0FBECDBFDF91CF9159
:1030A0001F91FF90EF90DF90CF9008959F92AF9285
:1030B000BF92CF92DF92EF92FF920F931F93CF9325
:1030C000DF93CDB7DEB72A970FB6F894DEBF0FBEF9
:1030D000CDBF06E512E084E4C82E82E0D82EF12CA4
:1030E00097E0E92E992493942EECA22E22E0B22EA2
:1030F000D6010D931D936D01BE016F5F7F4F8F2D24
:103100000E94EF1C892B09F056C0F8013896DF01A8
:103110008E2D1D928A95E9F789819A81D8011196A1
:103120009C938E938F8112968C9312978D81139618
:103130008C931397888514968C931497898515968C
:103140008C9315978B819C8117969C938E931697E1
:1031500018961C9218978A8587FF45C01E961C9268
:103160001E921D9780FF03C0D80118969C9281FF84
:1031700004C0F80190859260908782FF07C0D80153
:1031800018969C911897946018969C9383FF04C09E
:10319000F80190859860908784FF07C0D801189641
:1031A0009C911897906118969C9385FF04C0F80134
:1031B000808580628087015F1F4FF394F8E0FF12E3
:1031C00097CF2A960FB6F894DEBF0FBECDBFDF9122
:1031D000CF911F910F91FF90EF90DF90CF90BF9014
:1031E000AF909F900895F801B686A586BBCF0E9448
:1031F000AC170E9402180C945618CF92DF92FF92DF
:103200000F931F93CF93DF93CDB7DEB72A970FB6F7
:10321000F894DEBF0FBECDBF8C01603269F5DC01D2
:103220001196EC911197EE3038F5F0E0E35CF84C34
:103230000C94A23688E0ECE1F1E0DE0111960190F9
:103240000D928A95E1F780E2F80111928A95E9F7EB
:1032500085E0D8018C9311961C92119712961C92BE
:10326000129713961C92139788E0FE0131961496DC
:1032700001900D928A95E1F72A960FB6F894DEBF79
:103280000FBECDBFDF91CF911F910F91FF90DF90C7
:10329000CF90089588E4F801808381E081831282D1
:1032A0001382EACF13968C911397682F70E0762FD4
:1032B000662712968C91860F972F911D092E000C70
:1032C000AA0BBB0B55E0880F991FAA1FBB1F5A956D
:1032D000D1F7AC01BD01405E5F4F6F4F7F4F481784
:1032E00059076A077B0740F28834E1E09E07A10591
:1032F000B10510F64934F1E05F076105710520F072
:1033000048E451E060E070E0481B590BBC01645791
:103310007C4FC8010E94AF36AFCF40E250E06FEF64
:1033200070E00E94CE3680910401D8018C93809188
:10333000CB0311968C93A0CF81E090E09093CC03C7
:103340008093CB0382E390E09093CA038093C903F8
:103350000E94CF2E91CF80910401F801808380914B
:10336000CB0381838091C903828386CF40E250E002
:10337000BC0112968D919C910E94BA1F7DCFBC0119
:103380006F5F7F4F4FE150E0FC01828193810E948B
:10339000EC1FD8018C9370CFBC016C5F7F4F4CE168
:1033A00050E0FC01828193810E941420F2CF0E94A0
:1033B000961F62CF1296EC911297E73008F05CCF1F
:1033C000F0E0E55BF84C0C94A23680E2F801119233
:1033D0008A95E9F788E08C9311968C931197129651
:1033E0008C934ACFFC0183813AE0F32E9E012F5F3C
:1033F0003F4F6901D901EF2D1D92EA95E9F7B90117
:103400000E949F1CD8018D93F60101900D92FA94B1
:10341000E1F732CF13968C919AE0F8013496DE01F1
:10342000119601900D929A95E1F7BE016F5F7F4F63
:103430000E94B31CF80180830E94AC171DCF139625
:103440008C912AE0F22EFE0131966F01DF01EF2D03
:103450001D92EA95E9F7B6010E94C71CD3CF1396D7
:103460008C919AE0F8013496DE01119601900D924C
:103470009A95E1F7BE016F5F7F4F0E94DB1CF80158
:1034800080830E940218F8CE13968C919AE0F92E50
:10349000FE0131966F01DF01EF2D1D92EA95E9F7EC
:1034A000B6010E94EF1CAECF13968C919AE0F80102
:1034B0003496DE01119601900D929A95E1F7BE01C6
:1034C0006F5F7F4F0E94031DF80180830E94561892
:1034D000D3CECF93DF9300D000D00F92CDB7DEB71D
:1034E0009093FE048093FD04811520E2920748F436
:1034F0000F900F900F900F900F90DF91CF910C9441
:1035000090038EEF89838A8381E08B830E94CF2E84
:103510008160782F9D838C8349815A816B818D8155
:103520000F900F900F900F900F90DF91CF910C9410
:10353000D805CF93DF9300D000D00F92CDB7DEB780
:103540009093FE048093FD04811520E2920748F4D5
:103550000F900F900F900F900F90DF91CF910C94E0
:10356000A5038EEF89838A831B820E94CF2E816000
:10357000782F9D838C8349815A816B818D810F9037
:103580000F900F900F900F90DF91CF910C94D80572
:103590000F931F93CF93DF938C01EB0167EB73E0E5
:1035A0008C2F0E949F1C892BA1F480911D05909166
:1035B0001E05019798F4DD27CF53DC4F8881F80171
:1035C00010821882833041F180F4813091F0823092
:1035D000B9F0DF91CF911F910F910895EFE9FFE0CE
:1035E0003197F1F700C00000E4CF8430D1F085308E
:1035F00081F78091B7039091B803009751F306C00B
:103600008091B9039091BA03009799F3DF91CF911C
:103610001F910F910C94991A8091BB039091BC0358
:10362000F3CF8091BD039091BE03009779F720916D
:10363000B7033091B8038091B9039091BA03211573
:103640003105D9F2009711F7C901E0CFCF93DF938D
:10365000EC010E94691A80911D0590911E05019749
:1036600028F4CE01DF91CF910C94991AEFE9FFE095
:103670003197F1F700C00000F2CF0F931F93CF9363
:10368000DF938C01EB0167EB73E08C2F0E949F1C92
:10369000892B09F064C0FE01FF27D8018C91EF53FC
:1036A000FC4F8130D9F419969C911997992311F008
:1036B00080830CC01A969C919923D1F382E0808379
:1036C0008091B9039091BA030097D9F48091B70320
:1036D0009091B803009709F442C013C08230E9F515
:1036E00019968C91199781112DC01A968C91811180
:1036F0000EC083E080838091BB039091BC03009750
:1037000019F1DF91CF911F910F910C94691A84E008
:1037100080838091BD039091BE03009791F78091C3
:10372000B7039091B8030097F9F00E94261B80918F
:10373000B9039091BA03009721F78091B703909154
:10374000B803DFCF85E080838091B7039091B80301
:10375000009729F00E94261BF0CF86E08083DF913E
:10376000CF911F910F9108958091B9039091BA0361
:10377000B1CF0F931F93CF93DF938C01862F67EB0D
:1037800073E00E949F1C892BC9F4C091B703D091AC
:10379000B803209799F0F8018081833069F4CE0155
:1037A0000E94261BCE010E94261BCE01DF91CF91E5
:1037B0001F910F910C94261B8430B8F7DF91CF91A5
:1037C0001F910F910895CF93DF93FB012281211167
:1037D00030C0EC01D755CF3FD10509F050F567EB6C
:1037E00073E08C2F0E949F1C892B19F586E18C9F1A
:1037F000F0018D9FF00D1124E95FFC4F868181302F
:10380000E1F48091B7039091B803892B91F08091F6
:10381000B9039091BA03892B61F08091BB03909119
:10382000BC032091BD033091BE03822B932B892BC7
:1038300061F081E0DF91CF9108958230D1F78091DE
:10384000BB039091BC03892BA1F326E12C9FC001FF
:103850002D9F900D1124895F9C4FFC01108A0E94BE
:10386000212CE7CF84E0089550E0440F551F9EE0DF
:10387000699F400D511D11249CE8899F400D511DE9
:103880001124CA01879608950F931F93CF93DF9356
:103890008430C8F46A30B8F44730A8F40E94341C6D
:1038A0008C010E94E536C82FD0E0DC2FCC27C80160
:1038B00001960E94E5369E01282BC901DF91CF9128
:1038C0001F910F91089590E080E0F8CF0F931F9320
:1038D000CF93DF93E9018430E0F46A30D0F44730CD
:1038E000C0F421153C4531F42091040130910501CB
:1038F000232B79F00E94341C8C016D2F0E94F3362B
:103900006C2FC8010196DF91CF911F910F910C94FC
:10391000F336DF91CF911F910F9108958432910575
:1039200020F4895A9D4F0C94E53680E00895843246
:10393000910520F4895A9D4F0C94F33608959B010C
:10394000883070F49AE0899FB001112465587D4F4A
:103950004AE050E0C9010E94D53690E080E0089529
:103960008FEF9FEF08959B01883070F49AE0899F54
:10397000B001112465587D4F4AE050E0C9010E9412
:10398000173790E080E008958FEF9FEF08959B0137
:10399000883070F49AE0899FB001112465537D4FFF
:1039A0004AE050E0C9010E94D53690E080E00895D9
:1039B0008FEF9FEF08959B01883070F49AE0899F04
:1039C000B001112465537D4F4AE050E0C9010E94C7
:1039D000173790E080E008958FEF9FEF08959B01E7
:1039E000883070F49AE0899FB0011124655E7C4FA5
:1039F0004AE050E0C9010E94D53690E080E0089589
:103A00008FEF9FEF08959B01883070F49AE0899FB3
:103A1000B0011124655E7C4F4AE050E0C9010E946C
:103A2000173790E080E008958FEF9FEF08957F9221
:103A30008F929F92AF92BF92CF92DF92EF92FF92BE
:103A40000F931F93CF93DF93CDB7DEB76E970FB66B
:103A5000F894DEBF0FBECDBFC0900401D090050129
:103A600081E090E090930501809304018CEAA82EF8
:103A700080E0B82E00E0750110E015C0F40125913A
:103A80003491472D612F802F0E94661C82E0880EA2
:103A9000911C739497E07912F1CFEEE0EE0EF11CD9
:103AA0001F5F1A3019F04701712CE8CF0F5FFCE857
:103AB000AF0EB11C0430F9F60E94961F1E8A1D8AB3
:103AC000188E1F8A1A8E198E1C8E1B8E88EC90E021
:103AD0009E8F8D8F10E0BE016B5E7F4F812F0E9405
:103AE000B31C1F5F1830B9F77E018BE0E80EF11CA4
:103AF0008AE0F70111928A95E9F710E0B701812F6A
:103B00000E94DB1C1F5F1830C9F7CE0101967C01B3
:103B10008AE0F70111928A95E9F78FEF9FEF9E8374
:103B20008D8387E08A8710E0B701812F0E94031DF3
:103B30001F5F1830C9F7D0920501C09204016E963C
:103B40000FB6F894DEBF0FBECDBFDF91CF911F91AE
:103B50000F91FF90EF90DF90CF90BF90AF909F902C
:103B60008F907F900895EF92FF920F931F93CF93C2
:103B7000DF93EC018A017C01E60EF71ECE018796E9
:103B8000CE15DF0539F4DF91CF911F910F91FF9092
:103B9000EF900895C03322E0D20740F40E94E5364A
:103BA000F80180830F5F1F4F2196E8CFF801108244
:103BB000F9CFCF92DF92EF92FF920F931F93CF93A3
:103BC000DF938C016A018033924080F480E392E0BD
:103BD000801B910B8617970748F07801E60EF71EB9
:103BE000E801CE018796CE15DF0549F4DF91CF912C
:103BF0001F910F91FF90EF90DF90CF900895C03309
:103C000022E0D20740F4FE01E01BF10BEC0DFD1D9C
:103C100060810E94F3362196E4CF462F2091CB039A
:103C20003091CC03232B91F47E3F39F46E3F71F435
:103C30008091FD049091FE040895843038F47A3028
:103C400028F4673018F4672F0C94441C90E080E04F
:103C5000089580E1089585E990E00895EF92FF923C
:103C60000F931F93CF93DF93EC018A017C01E60E43
:103C7000F71ECE0185599C4FCE15DF0539F4DF9133
:103C8000CF911F910F91FF90EF900895C539D10505
:103C900040F40E94E536F80180830F5F1F4F2196A4
:103CA000E8CFF8011082F9CFCF92DF92EF92FF9226
:103CB0000F931F93CF93DF937C016A018C01060F52
:103CC000171FEC01CE0185599C4FC017D10749F44D
:103CD000DF91CF911F910F91FF90EF90DF90CF90E8
:103CE0000895C539D10540F4FE01EE19FF09EC0D28
:103CF000FD1D60810E94F3362196E4CFCF93DF93C0
:103D0000CBE6D3E060E0CE010E94F3362196C115E8
:103D100084E0D807B9F7DF91CF910895BF92CF9291
:103D2000DF92EF92FF920F931F93CF93DF9300D018
:103D300000D0CDB7DEB7F82E2FE0281740F08FEF78
:103D400093E00E94E5360BE613E08823D1F00F9054
:103D50000F900F900F90DF91CF911F910F91FF90D7
:103D6000EF90DF90CF90BF900895011544E01407C5
:103D700071F3C8010E94E536811101C0FA940F5F0A
:103D80001F4FF110F2CF19821A821B821C82BB24B2
:103D9000BA9478015FEFE51AF50AC8010E94E5368A
:103DA00089831A82882399F2813009F072C06801F0
:103DB00082E0C80ED11CC7010E94E536E82E8A8336
:103DC000882329F2C6010E94E536F82E8FEF8E0D6A
:103DD000833068F46801E3E0CE0ED11CFB82FF2043
:103DE00021F0CE0101960E94A9058601D2CF8BEF6A
:103DF0008E0D833030F5C8010396FB826C01FF20E5
:103E0000A1F36801F4E0CF0ED11C0E94E5368C834B
:103E1000882359F38B819C8181302FEF920710F01A
:103E2000982F882746E0E41631F057E0E51631F088
:103E30000E94261BDACF0E94691AD7CF0E94991AD6
:103E4000D4CF84E0E812D1CF6801E4E0CE0ED11CDB
:103E5000C80103960E94E536FF2009F478CF882335
:103E600009F475CF8150990BB89E9001B99E300D21
:103E700011244F2D4150550BCA01820F931F0197FA
:103E800008F4B3CFEFE9FFE03197F1F700C000008D
:103E9000F6CFCE0101960E94A9056701A6CF8091B9
:103EA000FF04909100050C9435230F931F93CF933B
:103EB000DF930FEF14E0D0E0C0E0CE010E948E1C33
:103EC000F80161918F01861719F0CE010E94971CAD
:103ED0002196C432D10589F7DF91CF911F910F91BF
:103EE00008950F931F93CF93DF930FEF14E0D0E06B
:103EF000C0E0CE010E948E1CF80181938F012196B3
:103F0000C432D105B1F7CAEDD4E0FE018591949198
:103F1000009711F0FC0109952896F5E0C233DF0700
:103F2000A1F7DF91CF911F910F910895EFEFF4E08A
:103F3000128E138E8FEA90E09183808385E0848FC8
:103F400028E833E13383228322E330E0378B268B6A
:103F500028EC30E0318F208F158E2AE030E0378F4B
:103F6000268F20E530E031A320A382A30E94551FB5
:103F70000C94711FEF92FF920F931F93CF93DF93D7
:103F80007C01EB018A016FEF70E0CE010E94CE361A
:103F900024ED34E0ACE2B5E090E080E0AC014E5FAF
:103FA0005F4F0417150788F0F90165917491E616C3
:103FB000F70630F48C0F9D1FFC0171836083CA01EA
:103FC000285F3F4FA217B30749F7DF91CF911F91A9
:103FD0000F91FF90EF900895DC01CB0124ED34E0C8
:103FE000F90165917491A617B70749F0285F3F4F13
:103FF00065E02C323607A1F78FEF9FEF0895B901E6
:104000006E5F7F4FFB01A591B4914A175B07A0F348
:10401000FB0145915491F9013496659174910E9488
:10402000C53690E080E00895CF93DF93C4EDD4E0EF
:10403000FE01259134918217930741F0289625E0DF
:10404000CC32D207A9F78FEF9FEF1DC0CE010296A9
:10405000FC012591349142175307A8F3FC014591C7
:104060005491FE013496859194910E94C5360E9428
:10407000551FFE01369685919491009711F0FC0131
:10408000099590E080E0DF91CF9108958091170528
:1040900090911805089580911C0581700895809174
:1040A0001C0586958170089580911C0582FB8827E8
:1040B00080F9089580911C0583FB882780F9089575
:1040C000809115059091160508958832910538F470
:1040D0008E319105E8F40497A0F480E008958933C7
:1040E000910558F48D32910510F48B97B1F78091BA
:1040F0001A0582FB882780F908C084369105B9F338
:10410000ECCF80911A058295817091E089270895FE
:1041100080911A0583FB882780F9F7CF80911A05D3
:1041200085FB882780F9089580911A0586FB8827EA
:1041300080F90895CF93DF93EC01FB0182818823FE
:1041400009F433C1C330FDE5DF07C0F5CA3F9CE584
:10415000D90730F49E0122503C4524313105B0F599
:104160000E943C119093980480939704C1318CE590
:10417000D80709F4EEC008F069C0C930ECE5DE07E5
:1041800009F4D5C0C8F5C5308CE5D80709F4C7C017
:1041900000F5C330ECE5DE0709F4B9C008F0BBC098
:1041A000C230DC4509F4ADC0809197049091980429
:1041B0000E944A110E94710780E008C0C136EDE5F7
:1041C000DE0771F2C53AFDE5DF0751F2DF91CF91CD
:1041D0000895809197048062C7309CE5D90709F45F
:1041E00093C0809197048061C830DC4508F48CC08E
:1041F00080919704806488C0809197048B7FCD3034
:10420000FCE5DF0709F480C098F4809197048E7F65
:10421000CB309CE5D90709F477C0809197048C6076
:10422000CC30DC4508F470C0809197048D7F6CC061
:10423000809197048F7ECF30FCE5DF0709F464C0DE
:1042400008F47BC0809197048F7D5EC0CD3F9CE5D4
:10425000D90709F47AC050F5C531FCE5DF0709F448
:1042600086C098F480919704837FC3319CE5D90779
:1042700009F44AC008F471C00E9471079091970434
:10428000892F97FB87F980583FC0CB3FFCE5DF07BC
:1042900009F449C008F055C0809198048160CA3F74
:1042A000DC4509F081CF809398047ECFC130EDE5E5
:1042B000DE0709F468C0A8F4CF3F8CE5D80709F4FD
:1042C00052C0809198048360C115DD4560F38091F0
:1042D0009804982F909591708E7F892B90FB81F98F
:1042E000E2CFC136EDE5DE0709F451C0C53AFDE580
:1042F000DF0709F453C0C230DD4509F055CF80E037
:1043000043C0809197048160809397044DCF809142
:1043100097048260F9CF809197048460F5CF8091F3
:1043200097048860F1CF809198048260BCCF0E948E
:104330007107809197048068E7CF80919704877F09
:10434000E3CF809198048E7FAECF809198048D7FCB
:10435000AACF809197048F7BD7CF0E94710780915D
:1043600097048F77D1CF809198048C7F9CCF8091D8
:10437000970482FB992790F921E0922790FB82F91C
:1043800090FB83F9C1CF81E00E94CF110DCF9091B6
:104390009704892F8F7E94FF8061B6CF9091970408
:1043A000892F8E7F90FF8160AFCF81E00FCF80910A
:1043B0000601877F8093060182E00E94FF0F8091B3
:1043C000060184FF06C08F7E8093060182E00E9472
:1043D000E60F8091060185FF06C08F7D8093060160
:1043E00080E20E94E60F0C945710CF93DF93EC010C
:1043F000662319F082E00E94F90FCE0190568115D4
:1044000020E2920720F0905E8115904108F4DD27AC
:10441000CE01DF91CF910C9490039C013056211571
:1044200040E2340720F0305E2115304108F499272E
:104430000C94A503FC0123E0F695E7952A95E1F796
:10444000EE71FF27E353FC4F20813181AC014F70A7
:10445000552781E090E002C0880F991F4A95E2F746
:10446000662329F0822B932B918380830895809576
:10447000909582239323F8CFFC0123E0F695E795EE
:104480002A95E1F7EE71FF27E353FC4F8F709927D0
:1044900021E030E002C0220F331F8A95E2F78081CD
:1044A00091812823392381E0232B09F480E00895AA
:1044B000DF92EF92FF920F931F93CF93DF93EC0164
:1044C0007B01D42E89018091060182FF86C0209154
:1044D000F5033091F6032C173D0719F0209709F0EA
:1044E0007CC0909106019B7F9093060161E091FD55
:1044F00010C08091F7039091F803A701481B590B56
:1045000061E080910701909108014817590708F46C
:1045100060E061708091060160FB81F98093060183
:10452000C9010E941A220E94E30F81FF08C08091F6
:10453000060180618093060182E00E94EC0F0E94D8
:10454000E30F85FF08C08091060180628093060119
:1045500080E20E94EC0F6091060166956170A801EF
:104560008091F5039091F6030E94F521D11014C0BB
:1045700080911D0590911E05019740F560910601FF
:1045800066956170A8018091F5039091F6030E94F1
:104590000D220E94D72130C0B8018091F50390917F
:1045A000F6030E948E20882319F3B8018091F50349
:1045B0009091F6030E9494208111DACFDF91CF9180
:1045C0001F910F91FF90EF90DF900895EFE9FFE0CA
:1045D0003197F1F700C00000CFCFCE010E943C22FE
:1045E000A801682FCE010E940D228091F5039091C1
:1045F000F6038C179D0769F2F092F803E092F70337
:10460000DDCF80911A0580FF1EC08091060182FFD8
:104610001AC00E94CF2E2091F7033091F803AC010D
:10462000421B530B20910701309108014217530799
:1046300050F02DEE33E041E0BC018091F503909104
:10464000F6030C945822089590910601892F8E7FCD
:1046500090FF8160809306010C94D7218091060120
:104660008E7F809306010C94D7219093080180934C
:1046700007010895CF92DF92EF92FF920F931F935D
:10468000CF93DF93EC017B0180911A0580FD0BC075
:1046900011E0812FDF91CF911F910F91FF90EF904B
:1046A000DF90CF9008950E94CF2E6C01F701828198
:1046B000882391F18091060182FF08C02DEE33E03E
:1046C00040E0B60190E080E00E945822CB31FCE54A
:1046D000DF07C9F0CC312CE5D207D9F0CA318CE51F
:1046E000D80711F40E942423CE0190568115E0E2F0
:1046F0009E0720F0905E81159041E0F41092F60341
:104700001092F503C5CF8091060181608093060168
:10471000EBCF0E942E23E8CF809106018F7EC13E11
:10472000D10531F0C53ED105B9F5809106018F7DE7
:10473000809306018091060180FFAACFB701CE01C8
:104740000E946520F7011281882309F4C8C0112353
:1047500009F4BEC00E94E30F182F0E941510812B90
:104760008D7FB9F11092F6031092F50380911A052E
:1047700081FD2FC060E0CE010E941A22A70160E0F7
:10478000CE010E94F5210E9415108D7F0E943110EC
:1047900082E00E94E31072C0CE019056811520E2A3
:1047A000920720F0905E8115904120F680910601DD
:1047B00082FF6ECFB701CE010E944F20811168CFDA
:1047C0002DEE33E040E0B60190E080E00E945822F8
:1047D0005FCF88E0F701ADEEB3E001900D928A95CE
:1047E000E1F71092EF031092F1031092F003809121
:1047F000F5039091F603C817D90709F04AC0B7012D
:10480000CE010E948E20882309F443C080910601C6
:1048100081FD36C08091F7039091F8038601081B53
:10482000190BB7018091F5039091F6030E94462081
:104830000817190770F50E94E30F81FF08C08091E7
:10484000060180618093060182E00E94EC0F0E94C5
:10485000E30F85FF08C08091060180628093060106
:1048600080E20E94EC0F6091060166956170A701DD
:104870008091F5039091F6030E94F52110E009CF95
:10488000B7018091F5039091F6030E949420811165
:10489000C1CF0E94E30F182F0E941510812B909119
:1048A000060181FB91F9909306010E9415108D7FFE
:1048B0000E943110D093F603C093F503D092F80311
:1048C000C092F7038091060184608093060160CF57
:1048D000970140E0B601CE010E945822DACE1111B4
:1048E0000DCFD6CE08950F931F93CF93DF93809172
:1048F0006404E091F9031CE081111AC0DF91CF91AB
:104900001F910F91089501E00E0F0093F903CE2F30
:10491000D0E0E19FF0011124EC5FFB4F8381948193
:10492000892B29F08081918189238F3FF9F4E02F31
:1049300080916404E81738F3109264041092F9032C
:10494000DDCF18968D919C918F3F9807E1F061E043
:104950000E9472241C9FF0011D9FF00D1124EC5F3A
:10496000FB4F148213820E940610E1CF1C9FD001DE
:104970001D9FB00D1124AC5FBB4F16968D919C917D
:104980001797892BF1F22081318142815381648113
:104990007581868197810E94E70EDCCF10926604B4
:1049A0001092650420910A0130910B01EFECF2E0C6
:1049B00090E080E02817390709F4089545814111F6
:1049C00002C01482168201963796F4CFDC01609102
:1049D000020480910304962F891301C00895292FA2
:1049E00030E0F901EE0FFF1FE650FC4F408151818E
:1049F0004A175B07A1F487E08A9FA0018B9F500DA7
:104A0000112441535D4F81E0FA0184839613E6CF70
:104A10002F5F3F4F237033272093020408952F5FA9
:104A20003F4F922F9370D8CF6F927F929F92AF9209
:104A3000BF92CF92DF92EF92FF920F931F93CF938B
:104A4000DF93DB0114962C911497211169C0A0907B
:104A50006404E4E0F4E030E020E0B12C66246394E8
:104A6000712C2A1508F047C0C284D384ED90FC90C5
:104A700011976FEF7FEF912C492D50E08A01000FC5
:104A8000111F0E0D1F1DE801088119810115110567
:104A900031F0C016D10609F4BA019394EDCF6F3FFF
:104AA0007607D1F1E30102C0CC0FDD1F6A95E2F772
:104AB000BC2AB30102C0660F771F9A94E2F7AB01DC
:104AC00041505109B416150629F512964D915C9185
:104AD00013976CE0629FF001639FF00D1124EC5F6F
:104AE000FB4F578346832EEF208321839187808756
:104AF00021E015962C93DF91CF911F910F91FF909C
:104B0000EF90DF90CF90BF90AF909F907F906F908D
:104B10000C94E624148213822F5F3F4F3C96A1CF62
:104B2000DF91CF911F910F91FF90EF90DF90CF9089
:104B3000BF90AF909F907F906F9008951F93CF93F9
:104B4000DF93C091020417E0809103048C1307C027
:104B50000E947324DF91CF911F910C94CE24D0E05A
:104B6000FE01EE0FFF1FE650FC4F80819181189FE0
:104B7000B001199F700D112461537D4F0E941425BF
:104B80002196C370E1CF0F931F93CF93DF93DC0186
:104B90002D913C91119740E090E080E0E82FF0E00B
:104BA000EE0FFF1FE20FF31FC081D1812097B9F0F4
:104BB000FB010081118190E005C0CE17DF0709F4E9
:104BC00041E09F5FE92FF0E0EE0FFF1FE00FF11FC4
:104BD0000190F081E02D309781F78F5FDFCF442384
:104BE00049F0981708F4DB01CD01DF91CF911F91B7
:104BF0000F910895B0E0A0E0F7CF809109018823DC
:104C000041F18091670490916804009711F10E942E
:104C1000E72E209165043091660428173907C8F4FF
:104C20009091020480910304981759F00E949E25E8
:104C30001092660410926504109268041092670442
:104C400008950E94732410926804109267040C94D3
:104C5000CE240895109268041092670410920901FE
:104C600080910304809302040E94CE240C94732448
:104C70008091090181110C942A2681E08093090119
:104C800008952F923F924F925F926F927F928F92F0
:104C90009F92AF92BF92CF92DF92EF92FF920F93CB
:104CA0001F93CF93DF93CDB7DEB72A970FB6F89453
:104CB000DEBF0FBECDBF6C012B01FB011281873F10
:104CC000FCE59F07F9F4112321F181E080930901AC
:104CD000812F2A960FB6F894DEBF0FBECDBFDF91AD
:104CE000CF911F910F91FF90EF90DF90CF90BF90E9
:104CF000AF909F908F907F906F905F904F903F907C
:104D00002F900895883F2CE5920709F04DC01111AE
:104D100048C00FEC12E0F12CE12C1986AA24A394D0
:104D2000B12C80910A0190910B01E816F90608F464
:104D300045C0F2018281882309F466C1F985FF2309
:104D400009F462C10E94CF2E909368048093670497
:104D500080916404883008F591E0980F9093640482
:104D600098E0F201DE01119601900D929A95E1F71B
:104D70002CE0829FC00111248C5F9B4F28E0FE0134
:104D80003196DC0101900D922A95E1F72FEF3FEF6C
:104D9000FC0131872087D386C28611E0F9851F2761
:104DA00097CF0E942A2694CF893F9C4509F0B1CF26
:104DB000112309F4AECF0E9438268ACFF801208152
:104DC000318166246A94762C212C822D90E0FC019E
:104DD000EE0FFF1FE20FF31F408151814115510576
:104DE00031F0C416D50609F43C012394EECF312CE2
:104DF000FFEF6F167F0609F448C0F8014481309038
:104E00000901832D411180E0F82FF1703F2EF2014E
:104E10008281882309F496C0332009F493C0B80135
:104E2000C7010E9460204C01F8018581811113C0E7
:104E3000950101C0220F6A94EAF78681822B86834E
:104E400080916504909166048815990520F49092EC
:104E5000660480926504C50102C0880F991F2A94D8
:104E6000E2F70197F80126812817190671F480915D
:104E7000670490916804009789F00E94E72E8816D5
:104E8000990660F421E0F8012483F985F329F98774
:104E90002FEFE21AF20A095F1F4F43CF209002045E
:104EA000309103043A8790E080E0EA852E1215C025
:104EB0008017910751F3822C912CF401EE0FFF1F04
:104EC000E650FC4FF182E082FFEF8F1A9F0A23E049
:104ED0008222992480920304D8CF822C912CF40151
:104EE000EE0FFF1FE650FC4F2081318147E0429FCB
:104EF000C001439F900D1124FC01E153FD4F3F0180
:104F0000B801CF010E94C3250097A9F021E0FC0160
:104F100024838017910709F4B8CF2091020422124C
:104F20000AC06816790639F494012F5F3F4F237049
:104F30003327209302043FEF831A930A482D4370CE
:104F4000242EB3CFF8019580868190E091101EC089
:104F5000950102C0220F331F2A94E2F72150310934
:104F60002817390731F4442309F44CC0C7010E94C3
:104F7000E624C50101C0880F6A94EAF7982F90953E
:104F8000F801868189238683392C7FCF9C01062CEA
:104F900002C0359527950A94E2F7A901417055277B
:104FA000BC016150710986239723892B39F5452B64
:104FB00029F182819381892BE1F01B821C821D8261
:104FC0001E82FEEFF983FA830E94CF2E8160582F54
:104FD0009D838C83F801828193818F8398872981B7
:104FE0003A814B816D817E810E94E70EF801158226
:104FF000C0CF60E0C7010E947224F8CFF22FF17099
:105000009F2EB7CF932CB5CF9091020480910304CB
:10501000981719F00E949E25C0CE0E94732410920A
:105020006804109267040E94CE24B7CECF93DF931A
:10503000EB0186319C4509F03BC00E94E30F982F9D
:105040009A7A2091190520FF04C0382F347409F092
:1050500090E021FF04C0382F317109F090E022FF69
:1050600004C0382F387809F090E023FF03C0827223
:1050700009F090E08A81882389F081E0911101C0D4
:1050800080E08093690489E2911185E30E94870F93
:105090000E94571080E0DF91CF91089580916904BC
:1050A000811104C089E20E948E0FF2CF85E3FBCF0D
:1050B00081E0F1CFFC018481862351F49281992310
:1050C000B9F06923808583FF05C081E061110FC0BD
:1050D00080E00895892F8F7092959F70982B862F6E
:1050E0008F7062956F70682B81E09613F1CF0895F1
:1050F00081E0FDCFCF93DF93EC0160917404709158
:10510000750480917604909177040E94F62E643F96
:1051100071408105910518F5809174049091750492
:10512000A0917604B09177048093700490937104F9
:10513000A0937204B093730484EF91E0A0E0B0E018
:1051400080936C0490936D04A0936E04B0936F04ED
:10515000D0936B04C0936A04DF91CF9108950E94AD
:10516000DB2E6093700470937104809372049093AB
:10517000730482E390E0A0E0B0E0E2CFFF920F93EF
:105180001F93CF93DF93F82E00917B0410917C0442
:105190000115110509F44DC010926B0410926A04B8
:1051A0000E9412100E940C1000917B0410917C044C
:1051B000D8011696CD91DC919E013A9521153F417B
:1051C00008F4D07ED1E0C11101C0D0E0D801199619
:1051D000ED91FC911A97309731F01B966D917C916F
:1051E00080E00995D823DD2339F08CEF8C0F813ACC
:1051F00038F58C2F0E948E0FFF2099F0E0917B04F0
:10520000F0917C04808584FD0CC080917A04882311
:1052100041F0808191819C0121503109253A3D4521
:10522000A8F00E94571010927C0410927B041092F8
:105230007A04C801DF91CF911F910F91FF900895DB
:105240000E9457108C2F0E94D306D6CF0E947A2836
:10525000E8CF10920C0180E00C94BE2880910C01E4
:1052600081110C94292981E080930C0108950F93FA
:105270001F9380916A0490916B04892B89F160914E
:1052800070047091710480917204909173040E9473
:10529000F62E00916C0410916D0420916E043091F3
:1052A0006F046017710782079307D0F080916A043A
:1052B00090916B040E94900310926B0410926A0408
:1052C0001092700410927104109272041092730480
:1052D00010926C0410926D0410926E0410926F0480
:1052E0001F910F9108952F923F924F925F926F926C
:1052F0007F928F929F92AF92BF92CF92DF92EF9266
:10530000FF920F931F93CF93DF9300D000D0CDB7C0
:10531000DEB78C017A836983DB0112965C9055209D
:10532000B1F08F35BDE59B0759F08036EDE59E075E
:1053300059F08E359D4559F40E942E29312C0DC00F
:1053400081E080930C01FACF0E942929F7CF309099
:105350000C0131101AC033243394832D0F900F9019
:105360000F900F90DF91CF911F910F91FF90EF90D1
:10537000DF90CF90BF90AF909F908F907F906F9075
:105380005F904F903F902F900895680120EEC21AD1
:10539000D1080E94E30FF82E0E949B0F482E0E9416
:1053A0001510482A4F2838E0C316D10408F094C0DD
:1053B00098012770332781E090E001C0880F2A957B
:1053C000EAF7552009F485C0482AA981BA818D9150
:1053D0009C910E94250B8090020190900301811402
:1053E000910409F4E1C021E030E0390102C0660C0B
:1053F000771C8A95E2F7E0917B04F0917C04FA83B4
:10540000E983A0907804B0907904212CE22DF0E09B
:10541000EE0FFF1FE80DF91D208131813C832B83A6
:105420002115310509F4C0C0411005C0D9011296FB
:105430008C9181118BC0EB81FC81838190E086216E
:105440009721892B09F482C08085982F977009F4E1
:1054500087E0F8E0CF16D10408F058C0552009F4D1
:1054600051C086958170882309F470C0AB81BC81DE
:10547000ED90FC900E151F0519F4552009F466C037
:10548000EB81FC8129813A81E217F30709F45EC0C0
:105490000584F685E02D309721F08081882309F47A
:1054A00055C0642D8B819C810E945A28882309F461
:1054B0004DC00E151F0509F08BC00115110509F42B
:1054C0008CC051108CC0EA14FB0409F03FC0512C71
:1054D00086C08095482279CF552009F44EC010939C
:1054E0007904009378040E94DB2E60937404709317
:1054F0007504809376049093770410926B04109255
:105500006A0463CF82FB882780F9ADCF5520F1F084
:105510008170A9CF0E94D30682C00497813A910579
:1055200048F4802F0E94870F552009F414CF0E9461
:10553000571004CF0E9457108FE39CE90197F1F7B1
:1055400000C00000802F0E944906EECF23945ECF5A
:10555000FC01208131812017310731F4511007C03F
:1055600010927A0480E031C0552009F4F4CEDC01B9
:1055700018968C9185FDEFCEF5CF809178049091AF
:1055800079048017910781F41092790410927804BD
:10559000109274041092750410927604109277049D
:1055A00010926B0410926A0480917B0490917C04A9
:1055B000009709F4D0CEA8E0CA16D10448F6642DAD
:1055C0000E945A288111C7CE81E00E94BE28C5CE14
:1055D000E114F10409F077CF512CF12CE12C80E09B
:1055E0000E94BE28EB81FC81F0937C04E0937B0455
:1055F00081E080937A0485810E940F1051100FC0C2
:10560000EF2869F0AB81BC818D919C919C01245065
:105610003109213A310508F07DCF0E948E0FEB81D0
:10562000FC8106811781C8019A9581159F4108F474
:10563000107EFF24F394C8010197853A9D4508F038
:10564000F12CAB81BC811996ED91FC911A973097A2
:1056500031F01B966D917C9181E00995F822FF2035
:1056600081F0EB81FC81868197810E9456030E9424
:105670000910C801F8E0CF16D10408F04ECF0E94FF
:105680007A280E94571050CFAF92BF92CF92DF92EC
:10569000EF92FF920F931F93CF93DF937C015B01F7
:1056A000C42FD22FFC0182818823F9F040937F041C
:1056B0000E94CF2E90937E0480937D0480E28C0F15
:1056C000883008F061C0C77081E001C0880FCA95BA
:1056D000EAF7DF91CF911F910F91FF90EF90DF904C
:1056E000CF90BF90AF900C94450710917F04141396
:1056F00040C080917D0490917E040E94E72E6C0151
:10570000B701C5010E944620C816D90690F5C0E22F
:10571000CD0F1D17B9F080E2810F883040F417706B
:1057200081E001C0880F1A95EAF70E944C07C83043
:1057300048F481E09D2F977001C0880F9A95EAF791
:105740000E944507802F0E943907C830E8F4D770BF
:1057500081E001C0880FDA95EAF7DF91CF911F91C0
:105760000F91FF90EF90DF90CF90BF90AF900C948F
:105770004C0780E28C0F883038F4C77081E001C09C
:10578000880FCA95EAF7E9CFDF91CF911F910F916A
:10579000FF90EF90DF90CF90BF90AF9008950F9360
:1057A0009C01CB01233F4CE5340759F1A8F4283D77
:1057B000FCE53F0701F1293D4CE53407D1F1273DD8
:1057C0003C4591F406E221EE41EE67ED7CE50E9456
:1057D000442B80E00F910895253FFCE53F07E9F059
:1057E000B0F0263F3C45F9F0FC018281882339F175
:1057F00010927F04EFCF07E225EE45EE68ED7CE5E1
:10580000E6CF06E221EE40EE63EF7CE5E0CF07E273
:1058100025EE44EE64EF7CE5DACF06E221EE42EEBF
:1058200065EF7CE5D4CF07E225EE46EE66EF7CE53A
:10583000CECF08E221E045EE69ED7CE5C8CF81E0FE
:10584000C9CFCF93DF93EC018989811115C081E025
:10585000898B8F810E94E60F88850E94F90F0E9434
:105860005710EA81FB81309739F06C897D89CE0130
:105870000696DF91CF910994DF91CF910895EF9231
:10588000FF920F931F93CF93DF93EC018A858111D1
:1058900034C0EB80FC8087E5F81A26E12E9DC0011C
:1058A0002F9D900D1124DC01A95FBC4F1496ED9142
:1058B000FC911597309731F054966D917C91835FF0
:1058C0009C4F099586E18E9D80018F9D100D1124BE
:1058D000095F1C4FF80187810E94EC0FF801808559
:1058E0000E94FF0F0E945710188219861B861E8285
:1058F0001D821092810410928004DF91CF911F913C
:105900000F91FF90EF900895DF92EF92FF920F9327
:105910001F93CF93DF937C01FB018281882399F051
:1059200080910D0190910E01019669F0C7E0D3E0DE
:1059300010E000E0DD24D39480910D0190910E01E0
:105940008017910744F4DF91CF911F910F91FF9041
:10595000EF90DF9008958E818823C1F089859A8524
:105960008E159F0539F480918004909181048E15E5
:105970009F0561F0DF86FC86EB86CE010E94212C1C
:10598000CE0106960E943F2C0E9406100F5F1F4F0B
:105990006696D2CFEF92FF920F931F93CF93DF9330
:1059A0007C0197558F3F910509F0E0F520910D019D
:1059B00030910E012817390724F490930E0180933B
:1059C0000D01FB01228136E1389F8001399F100DC6
:1059D0001124E801C95FDC4F288B92818E819923C5
:1059E00049F1FA86E9868F5F8E830E94CF2E9E87CB
:1059F0008D870E9415108F830E94E30F88870E9475
:105A0000F60F9885892B8887E881F981309731F0E6
:105A10006C897D89C801835F9C4F0995F092810450
:105A2000E092800481E0DF91CF911F910F91FF9070
:105A3000EF9008958823B1F38989882399F3C801E9
:105A4000835F9C4F0E943F2CEDCF9F92AF92BF92FD
:105A5000CF92DF92EF92FF920F931F93CF93DF933A
:105A6000CDB7DEB728970FB6F894DEBF0FBECDBF17
:105A700080910D0190910E01019609F052C0289677
:105A80000FB6F894DEBF0FBECDBFDF91CF911F914F
:105A90000F91FF90EF90DF90CF90BF90AF909F90CD
:105AA00008950A9DF0010B9DF00D1124E95FFC4F54
:105AB000C288D388C114D10459F4D701292D1D926D
:105AC0002A95E9F7B701818592850E9446206C01ED
:105AD0000A9DF0010B9DF00D1124E95FFC4F8681BA
