:100000000C9451020C9498020C9498020C9498024F
:100010000C9498020C9498020C9498020C949802F8
:100020000C9498020C9498020C94471D0C941B1E7F
:100030000C94CC170C9498020C9498020C9498028F
:100040000C9498020C9498020C9498020C949802C8
:100050000C9498020C9423180C9498020C94980217
:100060000C9498020C9498020C9498020C949802A8
:100070000C9498020C9498020C9498020C94980298
:100080000C9498020C9498020C9498020C94980288
:100090000C9498020C9498020C9498020C94980278
:1000A0000C9498020C9498020C9498021E00200064
:1000B000220000000000000000001F0021002300BB
:1000C000000000000000000029001A0015001C00BC
:1000D0000C001300000014000800170018001200A4
:1000E0002A0000002B00160009000B000E00330050
:1000F0002800040007000A000D000F003400000073
:10010000E1001B00190011003600380002511D00EB
:10011000060005001000370052000000E000E20079
:100120002C000000000050004F00015100002C0086
:100130002C00E600510000001E00200022000000FC
:100140000000000000001F0021002300000000004C
:10015000000000001E0020002200240026002D00C8
:1001600000001F0021002300250027002E000000B2
:100170002B00160009000B000E00330028000400BD
:1001800007000A000D000F0031000000E1001B0015
:10019000190011003600380002511D00060005004C
:1001A0001000370052000000E000E2002C000000C8
:1001B000000050004F00015100002C002C00E60010
:1001C000510000001E00200022000000000000007E
:1001D00000001F00210023000000000000000000BC
:1001E00029001A0015001C000C0013000000140068
:1001F00008001700180012002A0000002B0016004B
:1002000009000B000E0033002800040007000A005C
:100210000D000F0034000000E1001B001900110068
:100220003600380002511D0006000500100037009E
:1002300052000000E000E2002C000000000050002E
:100240004F0001510000005C2C00E600510000004E
:100250001E002000220000000000000000001F001F
:1002600021002300000000000000000029001A0007
:1002700015001C000C0013000000140008001700FB
:10028000180012002A0000002B00160009000B00C5
:100290000E0033002800040007000A000D000F00C4
:1002A00034000000E1001B00190011003600380086
:1002B00002511D000600050010003700520000002A
:1002C000E000E2002C000000000050004F0001514F
:1002D0000000005C2C00E60051000000000000005F
:1002E000000000002A2B2800000000000000000091
:1002F0000000000000000029000000002C1E342037
:10030000212224342627252E362D3738271E1F205C
:100310002122232425263333362E37381F040506A1
:100320000708090A0B0C0D0E0F10111213141516E5
:100330001718191A1B1C1D2F3130232D35040506E3
:100340000708090A0B0C0D0E0F10111213141516C5
:100350001718191A1B1C1D2F3130354C00000000D6
:10036000000000000000000000000000000000008D
:100370007E0F00D4FFFFFFC70000007804033000A9
:1003800000000C0362006F006E007A006F00000036
:100390000A036400650061007200000004030904A0
:1003A00009025B00030100A0FA0904000001030137
:1003B0000100092111010001224000070581030805
:1003C000000A0904010002030000000921110100D4
:1003D00001222200070582032000010705030320F4
:1003E00000010904020001030000000921110100BD
:1003F000012232000705840320000A1201100100C7
:10040000000008696973730100010203010660FFBF
:100410000961A1010962150026FF00952075088178
:10042000020963150026FF00952075089102C0059A
:10043000010980A101850319012AB700150126B71A
:1004400000950175108100C0050C0901A10185040A
:1004500019012AA002150126A0029501751081003C
:10046000C005010906A101050719E029E7150025C6
:10047000019508750181029501750881010507192B
:100480000029FF150026FF00950675088100050864
:1004900019012905950575019102950175039101D1
:1004A000C00011241FBECFEFDAE0DEBFCDBF04B61F
:1004B00003FE27C08091560290915702A0915802E6
:1004C000B09159028730904BA740B04BD1F41092B5
:1004D000560210925702109258021092590214BEFE
:1004E00084B7877F84BF0FB6F894A8958091600089
:1004F000886180936000109260000FBEE0E0F8E336
:10050000099511E0A0E0B1E0EAEAF0E402C005904C
:100510000D92A039B107D9F722E0A0E9B1E001C0FE
:100520001D92A635B207E1F70E94071A0C941C2011
:100530000C94000081E0089581E008950C949C02E1
:1005400008950C94A0021F93CF93DF9300D000D0A6
:100550000F92CDB7DEB749835A836B833091A801E0
:1005600089819A8131111DC06623B9F02223A9F037
:100570000E943D15182F682F89819A810E94E914E5
:1005800069817A81812F0F900F900F900F900F90BB
:10059000DF91CF911F910C9453090E941515182FCC
:1005A000EFCF0E943D1569817A81EDCFFC01262FA6
:1005B000408151816281738184810C94A302CF9325
:1005C000DF93EC0160E00E94D602BE01DF91CF9183
:1005D0000C94A102FF920F931F93CF93DF93E82F08
:1005E000F0E0E452FD4FF490C82FC695C695C6952D
:1005F000D0E0FE01E459FC4F0491877010E0082E12
:1006000002C0159507950A94E2F701701127C45AA4
:10061000DC4FFE01C491D0E002C0D595C7958A9504
:10062000E2F7C170DD270115110519F081EE0E9476
:100630007C0D209719F086EE0E947C0D8F2D0E9474
:10064000550ECD2B19F086EE0E94060E012B41F0BF
:1006500081EEDF91CF911F910F91FF900C94060EC8
:10066000DF91CF911F910F91FF900895EF92FF922C
:100670000F931F93CF93DF93EC01162F0AE088812D
:10068000882309F454C0813009F04EC0898181303B
:1006900099F47E0122E0E20EF11C8A810E94550E3F
:1006A000E7012196812F815050F3EFE9FFE0319768
:1006B000F1F700C00000F7CF823041F47E0182E004
:1006C000E80EF11C8A810E947C0DEACF833041F450
:1006D0007E01E2E0EE0EF11C8A810E94060EE0CF60
:1006E000843011F02196DDCF2A81229690E080E0BF
:1006F000AE014F5F5F4F2053330B2A30310548F076
:10070000019778F2EFE9FFE03197F1F700C00000C0
:10071000F7CF089FB001099F700D1124C901860F02
:10072000971F2981EA01E4CF0E94EA02BACFDF9144
:10073000CF911F910F91FF90EF90089560E00C947E
:1007400036038F929F92AF92BF92CF92DF92EF9239
:10075000FF920F931F936B017C0181E090E0A0E07A
:10076000B0E04C015D0104C0880C991CAA1CBB1CA4
:100770004A95D2F7B501A4014C015D0104C0880C73
:10078000991CAA1CBB1C2A95D2F7482959296A2909
:100790007B2904C0880F991FAA1FBB1F0A95D2F797
:1007A0008A019B010C211D212E213F2104171507D1
:1007B0002607370789F48C299D29AE29BF29BC015A
:1007C000CD011F910F91FF90EF90DF90CF90BF90E0
:1007D000AF909F908F90089580959095A095B0953B
:1007E0008C219D21AE21BF21EACF0F93382F262FD8
:1007F00060910E0270910F0280911002909111028F
:10080000042F432F0E94A1030F910C9427140E94E0
:100810005A180E947A16811102C00E941E170C9469
:100820003B060C943E0608950E94C8100E941304D3
:100830002FEF84E39CE0215080409040E1F700C01E
:1008400000000C9447180F931F93CF93DF93EC0194
:1008500061E00E94D6028C01BE010E948A078823B3
:1008600059F1BE01C8010E949E02882329F1BE01F0
:10087000C8010E94A90A8823F9F0BE01C8010E949C
:10088000FB0A8823C9F0BE01C8010E941E0C882300
:1008900099F08A81882339F001158CE5180751F009
:1008A0000F3D1C4579F0CE01DF91CF911F910F9143
:1008B0000C949A020E94140480E0DF91CF911F9162
:1008C0000F9108950E941E17F7CF08950C946504A8
:1008D00081E008950C946804CF93C82F0E946604A9
:1008E0008C2FCF910C946A04CF93DF930E9453090D
:1008F0000E946005EC01811522E59207E8F581155B
:1009000031E5930708F0ACC0883E910510F5803EB4
:10091000910570F5883A910570F4853A910508F0D3
:1009200078C08130910521F1009711F1049700F50D
:10093000D0E0C0E01DC08F3B9105D0F7C85AD0E091
:10094000CC0FDD1FC35FDE4F0990D881C02DD4646A
:100950000FC0811540E5940708F066C0C11580E41A
:10096000D80708F05EC0CE019A9581159F4100F727
:10097000CE01DF91CF910895811536E5930718F5E3
:10098000811545E5940708F083C0C11584E5D807B3
:1009900008F079C09C2F969596959E012370332779
:1009A000C115D34508F461C0C1E0D0E002C0CC0F4E
:1009B000DD1F2A95E2F730E2939FC0011124C82B76
:1009C000D92BDA68D5CFC1158AE5D80778F4C115D7
:1009D00099E5D90708F066C0C11528E5D20708F4E3
:1009E000A7CFDC2FCC27C06FD06AC2CFCE019056E4
:1009F0008115904208F09CCF8D2F8F710E94F705D2
:100A000090E0982F882788279F719C012C2BE90163
:100A100047C0C55AD0E0C55CDE4FC881D0E0D06485
:100A2000A7CFDF70D06AA4CFE4E096958795EA95CA
:100A3000E1F783702C2F26952695237040E2249FA2
:100A400090011124382B8C2F8370C1E0D0E002C0BC
:100A5000CC0FDD1F8A95E2F7C22BD32BDC6888CF41
:100A6000D82FCC27C16FD06A83CFC1E0D0E002C0BD
:100A7000CC0FDD1F2A95E2F720E2929FC0011124DE
:100A8000C82BD92BEBCFDC2FCC27C46FD06A70CF0B
:100A90000E94F705C82FD0E0DC2FCC27CC27DF71D0
:100AA000D06266CF8C2F8F700E94F70534E0D69508
:100AB000C7953A95E1F7CF709C2FEC01D06958CFDC
:100AC00082389105B1F1B0F48133910509F475C014
:100AD00048F48932910509F469C08A32910509F414
:100AE00073C008958533910509F459C08933910580
:100AF00001F10895833E9105A9F138F4803E9105F6
:100B0000F9F0823E910549F10895863E9105A9F1DB
:100B1000873E9105C9F1843E910519F5209148025F
:100B200021FF1FC08091470284FD14C087EE90E032
:100B30000895209147022370A1F080EE90E008957F
:100B40002091470220FD47C03091480230FF09C084
:100B500024FF44C090E080E004C02091470222FDC1
:100B6000F7CF08952091470222FD3BC03091480203
:100B700030FDE3CF24FFF5CFEDCF2091470223FFD7
:100B8000F0CF24FDE7CFD2CF2091470223FD2CC028
:100B90003091480231FFEECF84EE90E0089520912D
:100BA000470225FFDECF89E290E0089520914702B9
:100BB00025FFD7CF85E390E008952091470226FFD7
:100BC000D0CF8AE290E008952091470226FFC9CF56
:100BD00081E390E0089589E390E0089583EE90E04A
:100BE000089582EE90E0089586EE90E00895909149
:100BF000470292FF06C0282F28712830F9F4877F1A
:100C0000846093FF06C0282F28712831F1F4877E75
:100C100084612091480220FF06C0382F3871383097
:100C2000D9F4877F816021FF06C0282F28712831E1
:100C3000D1F4877E816194FD877E0895282F2471E9
:100C40002430F9F68B7F8860DCCF282F2471243183
:100C500001F78B7E8861DDCF382F3171313019F784
:100C60008E7F8860E0CF282F2171213121F78E7E81
:100C70008861E1CF08950C943A0608950C943D06DE
:100C8000E82FF0E0E75CFD4F80810895089580EA49
:100C90008A95F1F70895F894E82FE295EF70F0E067
:100CA00031A1282F2F7081E090E001C0880F2A9594
:100CB000EAF7982F9095932391A392A1892B82A371
:100CC00078940895CF93DF93C5E4D1E089910E9491
:100CD0004B0681E0CF34D807C9F7CEE3D1E0899144
:100CE0000E944B0681E0C534D807C9F7EFE2F2E075
:100CF000A9E3B2E011921D9282E0E933F807D1F73F
:100D00008AE00E94FC06DF91CF910C940704CF92F9
:100D1000DF92EF92FF920F931F93CF93DF93C5E47F
:100D2000D1E00FE212E0D12CEE24E394F12C899172
:100D3000F894E82FE295EF70F0E021A18F70A70101
:100D400002C0440F551F8A95E2F7CA01922F982BD3
:100D500091A392A18095892382A378940E9447064B
:100D6000EEE3F1E030E020E0C12C4191A42FA29508
:100D7000AF70B0E090968C9190E04F7002C0959566
:100D800087954A95E2F780FD33C08E2D022E01C073
:100D9000880F0A94EAF7C82A2F5F3F4F27303105A2
:100DA00021F7FE01319780810E944B06F801808176
:100DB000C81601F1C08281E0D82A0F5F1F4FF1E011
:100DC000CF34DF0709F0B3CF2D2D4AE069E372E09D
:100DD0008FE292E00E94FD060E9411048D2DDF91AA
:100DE000CF911F910F91FF90EF90DF90CF900895DA
:100DF00080E0D1CF80E0E0CF0895FF920F931F9362
:100E0000CF93DF93F82E092F162FD72FC42F22232D
:100E100049F081E0809392010E94FC179093910128
:100E200080939001809192018823A1F0809190019C
:100E3000909191010E941418069760F0EF2DF02F09
:100E4000A12FBD2FCE0FDF2FD11DEC17FD0741F4D1
:100E500010929201DF91CF911F910F91FF90089511
:100E600081918D93F2CF82E290E00E94DA1F82326C
:100E700089F483E290E00E94DA1F833059F484E21F
:100E800090E00E94DA1F91E0843209F090E0892F0F
:100E90008170089580E0FCCFCF93C82F6FEF811150
:100EA00062E282E290E00E94E81F6FEFC11163E00E
:100EB00083E290E00E94E81F6FEFC11164E284E2D8
:100EC00090E0CF910C94E81F80E00E944C070C94B6
:100ED0007416089585E290E00E94DA1F682F70E092
:100EE00090E080E0089585E290E00C94E81F0E9475
:100EF00069070E94330781110CC060E070E0CB01EC
:100F00000E9473070E94CB080E94B70981E00C94ED
:100F10004C070895CF93FB01C281CC2309F19C01BA
:100F200022513F452031310520F582510E94C709E9
:100F3000C0E08C2FCF91089581E00E944D1443E0D2
:100F400062E081E00E94F503F3CF81E00E946E141D
:100F500043E062E081E00E94F503EBCF82E0F6CF50
:100F60008031FFE59F0789F381319F45B9F3C1E0E7
:100F7000E0CF8031EFE59E07F9F281319F45C9F658
:100F800082E0DBCF2FEFFC0120830895EF92FF92E8
:100F90000F931F93CF93DF93EC01062FE881E1506D
:100FA000E33108F05EC0F0E0E25EFF4D0C94CD1F2F
:100FB000198289E08A83602FCE01DF91CF911F9142
:100FC0000F91FF90EF900C94FB188981823069F0AB
:100FD000833071F08130D9F40E9408180E94D31F29
:100FE0006A837B838C839D83E6CF0E946A07F6CF5A
:100FF0007E0122E0E20EF11C10E0812F0E944006EB
:10100000F70181937F011F5F1A30B9F7D4CF602FAA
:10101000CE010E94C207CFCF89818230C1F76A8199
:101020007B818C819D810E94D31F0E947307C3CF57
:101030004B816A8189810E949D089827892798277A
:101040009D838C83B8CF2C813D8132272327322783
:101050004B816A8189810E94B608ADCF0E94CB087E
:10106000AACF8FEF8883A7CF0E9460098983A3CF7F
:101070000E9462099827892798279A8389839BCFA2
:101080006B8170E089819A81AE014C5F5F4F982738
:10109000892798270E9465098ECF6B8170E089812E
:1010A0009A81AE014C5F5F4F9827892798270E944D
:1010B0008C0981CF0E94B7097ECF0E948B08D6CFC2
:1010C0006B8170E089819A81AE014C5F5F4F9827F8
:1010D000892798270E9403096ECF6B8170E0898170
:1010E0009A81AE014C5F5F4F9827892798270E940D
:1010F000290961CF0E9464075ECF0E94FB18FFEFB1
:1011000021EE84E0F15020408040E1F700C0000073
:101110000E94471850CF84E0089550E0440F551FB7
:101120009EE0699F400D511D11249CE8899F400D50
:10113000511D1124CA01869608950F931F93CF93D2
:10114000DF930E948D088C010E94DA1FC82FD0E027
:10115000DC2FCC27C80101960E94DA1F9E01282BA4
:10116000C901DF91CF911F910F9108950F931F93A4
:10117000CF93DF93122F032F0E948D08EC01602F75
:101180000E94E81F612FCE010196DF91CF911F9140
:101190000F910C94E81FAF92BF92CF92DF92EF9223
:1011A000FF921F93CF93DF938CEAC82E80E0D82E56
:1011B000D0E07601C0E014C0F50125913491412FB3
:1011C0006C2F8D2F0E94B60882E0A80EB11C1F5F05
:1011D000173091F78EE0E80EF11CCF5FCA3019F09E
:1011E000570110E0E9CFDF5F8CE8C80ED11CD43086
:1011F00001F7DF91CF911F91FF90EF90DF90CF909B
:10120000BF90AF900895EF92FF920F931F93CF93EB
:10121000DF93EC018A017C01E60EF71ECE01869673
:10122000CE15DF0539F4DF91CF911F910F91FF901B
:10123000EF900895C03322E0D20740F40E94DA1FF5
:10124000F80180830F5F1F4F2196E8CFF8011082CD
:10125000F9CFCF92DF92EF92FF920F931F93CF932C
:10126000DF937C016A018C01060F171FEC01CE0190
:101270008696C017D10749F4DF91CF911F910F9146
:10128000FF90EF90DF90CF900895C03322E0D20717
:1012900040F4FE01EE19FF09EC0DFD1D60810E9476
:1012A000E81F2196E4CF462F843038F47A3028F4B2
:1012B000673018F4672F0C949D0890E080E0089543
:1012C00080E108958AEA91E00895EF92FF920F93EA
:1012D0001F93CF93DF93EC018A017C01E60EF71E8A
:1012E000CE018A5A9D4FCE15DF0539F4DF91CF919B
:1012F0001F910F91FF90EF900895CA3A21E0D20715
:1013000040F40E94DA1FF80180830F5F1F4F21967F
:10131000E7CFF8011082F9CFCF92DF92EF92FF92E0
:101320000F931F93CF93DF937C016A018C01060F0B
:10133000171FEC01CE018A5A9D4FC017D10749F4FF
:10134000DF91CF911F910F91FF90EF90DF90CF90A1
:101350000895CA3A21E0D20740F4FE01EE19FF09D0
:10136000EC0DFD1D60810E94E81F2196E3CFCF9315
:10137000DF93C6E5D2E060E0CE010E94E81F21962F
:10138000C11584E0D807B9F7DF91CF910895DF92B6
:10139000EF92FF920F931F93CF93DF9300D000D073
:1013A000CDB7DEB7F82E8FE08F1540F08FEF93E0CA
:1013B0000E94DA1F06E512E08823C1F00F900F901B
:1013C0000F900F90DF91CF911F910F91FF90EF90B1
:1013D000DF900895011584E0180781F3C8010E9489
:1013E000DA1F811101C0FA940F5F1F4FF110F2CF85
:1013F00019821A821B821C82DD24D39478018FEF1C
:10140000E81AF80AC8010E94DA1F89831A82882321
:10141000A9F29FEF980F933078F48A83D9820E5FF8
:101420001F4FC7010E94DA1F8B83882339F2CE0138
:1014300001960E949E03E2CF8701F9CFAF92BF923F
:10144000CF92DF92EF92FF920F931F93CF93DF9390
:101450007C015B01C42FD22FFC0182818823F9F02B
:10146000409395010E94FC179093940180939301FF
:1014700080E28C0F883008F061C0C77081E001C045
:10148000880FCA95EAF7DF91CF911F910F91FF90D6
:10149000EF90DF90CF90BF90AF900C94680E1091BA
:1014A0009501141340C080919301909194010E9482
:1014B00014186C01B701C5010E943E13C816D90665
:1014C00090F5C0E2CD0F1D17B9F080E2810F883092
:1014D00040F4177081E001C0880F1A95EAF70E9466
:1014E0006F0EC83048F481E09D2F977001C0880FBF
:1014F0009A95EAF70E94680E802F0E94550EC83018
:10150000E8F4D77081E001C0880FDA95EAF7DF913F
:10151000CF911F910F91FF90EF90DF90CF90BF90F0
:10152000AF900C946F0E80E28C0F883038F4C77047
:1015300081E001C0880FCA95EAF7E9CFDF91CF912A
:101540001F910F91FF90EF90DF90CF90BF90AF90E1
:1015500008950F939C01CB01243F4CE5340759F1CA
:10156000A8F4293DFCE53F0701F12A3D4CE534078D
:10157000D1F1283D3C4591F406E221EE41EE68EDC3
:101580007CE50E941E0A80E00F910895263FFCE54D
:101590003F07E9F0B0F0273F3C45F9F0FC018281BC
:1015A000882339F110929501EFCF07E225EE45EE41
:1015B00069ED7CE5E6CF06E221EE40EE64EF7CE5E6
:1015C000E0CF07E225EE44EE65EF7CE5DACF06E2F8
:1015D00021EE42EE66EF7CE5D4CF07E225EE46EE43
:1015E00067EF7CE5CECF08E221E045EE6AED7CE5D1
:1015F000C8CF81E0C9CFCF93DF93EC01FB0182819B
:10160000882309F419C1C230FCE5DF07C0F1C631F7
:101610009CE5D90730F09E012B5F3C452930310510
:1016200070F50E948D169093480280934702C03156
:10163000ECE5DE0709F4CFC008F05BC0C8308CE5EC
:10164000D80709F4B6C088F5C430ECE5DE0709F424
:10165000A8C0C0F4C2308CE5D80709F49CC08091C2
:1016600047028260C330DC4509F498C0809147028C
:10167000909148020E949B160E94C81080E0DF9162
:10168000CF910895809147028061C630ECE5DE0776
:1016900009F484C0809147028860C730DC4508F4B3
:1016A0007DC080914702806279C0CC308CE5D8073C
:1016B00009F489C070F4809147028C60CA30ECE56F
:1016C000DE0709F46BC008F478C0809147028E7F72
:1016D00065C0CE308CE5D80709F479C08091470207
:1016E0008B7FCF30DC4508F459C0809147028F7E54
:1016F00055C0CC3FECE5DE0709F457C030F5C331E7
:101700008CE5D80709F46FC078F4C131ECE5DE0749
:1017100009F465C0C231DC4509F0A8CF0E94C810A9
:10172000809147028F773AC0C5318CE5D80709F41C
:1017300062C008F476C0809148028160CB3FDC45EE
:1017400009F094CF8093480291CFC115FDE5DF07E2
:1017500009F44DC088F4809148028D7FCE3F9CE50E
:10176000D90781F3809148028E7FCF3FDC4550F34B
:10177000809148028360E6CFC230FDE5DF0709F4BF
:1017800059C008F444C080E0C330DD4509F06ECF95
:101790000E9420176BCF809147028160809347029F
:1017A00065CF809147028460F9CF809148028260C2
:1017B000C9CF809147028064F1CF0E94C810809108
:1017C00047028068EBCF809147028D7FE7CF809101
:1017D0004702877FE3CF809147028F7DDFCF8091E3
:1017E00047028F7BDBCF80914702837FD7CF8091E9
:1017F00048028C7FA7CF8091470282FB992790F9FE
:1018000021E0922790FB82F990FB83F9C7CF80916A
:101810004802982F909591708E7F892B90FB81F9CB
:1018200091CF0E94C81090914702892F97FB87F9AA
:101830008058B4CF81E0ACCF81E021CFCF93DF934C
:10184000EB0186319C4511F50E94D2159A819923AE
:1018500099F08A7A91E009F490E0909396018111D1
:1018600009C089E20E94AD150E94111680E0DF9147
:10187000CF91089585E3F6CF80919601811104C040
:1018800089E20E94B415F0CF85E3FBCF81E0EFCF72
:1018900090939C0180939B010895E0919B01F091AE
:1018A0009C01309721F00190F081E02D099480E0B7
:1018B0000895E0919B01F0919C01309721F0028006
:1018C000F381E02D099408952091990130919A01B6
:1018D0002817390771F090939A0180939901E0914C
:1018E0009B01F0919C01309721F00680F781E02D5B
:1018F000099408952091970130919801281739078C
:1019000071F09093980180939701E0919B01F09181
:101910009C01309721F00084F185E02D0994089511
:1019200085B7806885BF85B7806885BF08950895AD
:1019300008950C94970C08950C949B0C0E94900CA5
:101940000E94980C0C94990C81E008950C94A40CBE
:10195000089508950E94F3170E9462060E94770777
:101960000E946E180C949C0CBF92CF92DF92EF9263
:10197000FF920F931F93CF93DF93CDB7DEB72A97D4
:101980000FB6F894DEBF0FBECDBF0E94A80C0E9418
:10199000A90C0E9487060E94A60C882309F45CC04B
:1019A0008EE9C82E81E0D82E10E000E0B02E802F06
:1019B0000E944006E82EF601F1906F01F81609F436
:1019C00045C08091230281FD0E9446069F2D9E25E1
:1019D00080E0FF24F394292F2F21A1F18E83BF8271
:1019E000EF2081E009F480E088870E94FC17816085
:1019F000782F9A8789874E815F8168858A850E94C2
:101A00004D0DF801E256FE4F8081F826F0820E94CB
:101A10004D0C90919D01891781F10E944D0C80938E
:101A20009D012A960FB6F894DEBF0FBECDBFDF91A1
:101A3000CF911F910F91FF90EF90DF90CF90BF90CB
:101A40000C946C048F5FFF0C873029F60F5F1F4FDB
:101A50000A30110509F0AACF8FEF89838A831B8290
:101A60000E94FC178160782F9D838C8349815A8165
:101A70006B818D810E944D0DCACF2A960FB6F894C6
:101A8000DEBF0FBECDBFDF91CF911F910F91FF90B1
:101A9000EF90DF90CF90BF900895CF93DF93CDB7B5
:101AA000DEB72B970FB6F894DEBF0FBECDBF4F83C6
:101AB000588769877A878B871E821D8285E0FE01A1
:101AC0003796DE01119601900D928A95E1F74981D2
:101AD0005A816B817C818D819E812B960FB6F89403
:101AE000DEBF0FBECDBFDF91CF910C944113FC013F
:101AF000808191810C947F15CF93C82F882309F49E
:101B000083C08238C1F40E944D0C81FD7DC089E301
:101B10000E94AD150E9411162FEF81EE94E0215026
:101B200080409040E1F700C0000089E30E94B415B6
:101B3000CF910C9411168338A1F40E944D0C80FDB6
:101B400063C083E50E94AD150E9411162FEF81EE50
:101B500094E0215080409040E1F700C0000083E510
:101B6000E5CF8438A1F40E944D0C82FD4DC087E47E
:101B70000E94AD150E9411162FEF81EE94E02150C6
:101B800080409040E1F700C0000087E4CFCF8CEFA9
:101B90008C0F813A90F46C2F80910001909101019B
:101BA0000E943717882329F08C2F0E94B4150E94B9
:101BB00011168C2F0E94AD15BBCF80E28C0F8830A0
:101BC00048F4C77081E001C0880FCA95EAF70E9407
:101BD000D515AECFEBE5EC0FE33040F4F0E0E35881
:101BE000FE4F808190E0CF910C94640CC85AC731AD
:101BF00058F4EC2FF0E0EE0FFF1FE15BFE4F808109
:101C00009181CF910C947A0CCF910895882309F497
:101C10004BC0823871F40E944D0C81FF45C089E3AE
:101C20000E94AD150E94111689E30E94B4150C9410
:101C30001116833859F40E944D0C80FF35C083E59E
:101C40000E94AD150E94111683E5EFCF843859F438
:101C50000E944D0C82FF28C087E40E94AD150E94AF
:101C6000111687E4E2CF9CEF980F913AF0F290E2E0
:101C7000980F983050F4877091E001C0990F8A95C1
:101C8000EAF7892F0E94DB15D2CF9BE5980F93309E
:101C900020F490E080E00C94640C885A873120F4A2
:101CA00090E080E00C947A0C0895CF93C82F0E94A6
:101CB0007C0DC93349F42FEF87EE93E0215080402B
:101CC0009040E1F700C000008C2FCF910C94060EDD
:101CD000882321F00E94D5150C94111608958823AD
:101CE00021F00E94DB150C9411160895BF92CF923B
:101CF000DF92EF92FF920F931F93CF93DF936C01CC
:101D0000D62FC72FFC01058102950F70128111118A
:101D10000E94F2150E94CB15E82E882391F0112322
:101D2000E9F08C2F807F803421F080E28D0F8830A5
:101D3000A8F082E00E945C160E94CB1591E0E82E8C
:101D4000E926BC2EB2949FE0B922FBE0FB15A8F176
:101D5000EB2DF0E0EF5CFF4D0C94CD1FE12CF1CFAB
:101D60000C2F0F70C07F11F00295007F1123A9F096
:101D7000002359F080E28D0F883010F0D11109C096
:101D8000802F0E94D5150E9411168D2F0E947C0D68
:101D900014C0802F0E94E515F6CF8D2F0E94060EED
:101DA000002359F080E28D0F883010F0D1112CC043
:101DB000802F0E94DB150E9411162B2D2850330B0B
:101DC0002430310520F40E944D0C0E946C04EE205A
:101DD00009F483C10E94C71580FD7FC1F6011282FC
:101DE0000E94C1150E944D14C6010E948E100E94CF
:101DF000C115DF91CF911F910F91FF90EF90DF9070
:101E0000CF90BF900C946E14802F0E94EB15D3CF0F
:101E10002C2F2F70F22EC07FC03219F0F29480EF79
:101E2000F822DD2369F0D13049F1112391F100232B
:101E300051F1F601858180FFA8CF8F70858323C083
:101E4000112381F0011106C00E94F8158F290E940C
:101E5000680EB3CF0130C1F70E94F8158F290E9498
:101E6000FE15ABCF011106C00E9407168F2D0E94F0
:101E70006F0EA3CF013009F4A0CFF6CF112329F0C4
:101E8000063008F09ACF8F2DE2CF053008F095CFBD
:101E9000EDCF002359F3D93349F4FFEF27EE33E0B8
:101EA000F15020403040E1F700C000008D2F0E942B
:101EB000060E83CF8C2F86958695837069F08130CE
:101EC00009F07BCF8D2F9C2F9370111102C090E0F1
:101ED00080E00E947A0C71CF8D2F9C2F937011118E
:101EE00002C090E080E00E94640C67CF8C2F83706A
:101EF00009F041C0111161CF4D2F429546954770B1
:101F0000440F440F0D2F0F7010E030E020E0042E3E
:101F100004C0000F111F221F331F0A94D2F760E084
:101F200070E0CB01D4FF0FC06FE070E080E090E084
:101F300004C0660F771F881F991F4A95D2F76095D6
:101F4000709580959095C695C695C370602B712B42
:101F5000822B932BC23049F058F4C13019F00E9403
:101F6000FF132BCF0E94ED1328CF0E94111425CF11
:101F70000E94EB1322CF8695112311F08C2F8170D4
:101F8000882309F41ACF4D2F429546954770440F88
:101F9000440F0D2F0F7010E030E020E0042E04C03D
:101FA000000F111F221F331F0A94D2F760E070E068
:101FB000CB01D4FF0FC06FE070E080E090E004C080
:101FC000660F771F881F991F4A95D2F76095709505
:101FD00080959095C695C695C370602B712B822B0A
:101FE000932BC23049F058F4C13019F00E94C41448
:101FF000E4CE0E94B214E1CE0E94D614DECE0E943E
:102000002714DBCECF70112329F08C2F0E944D14A2
:102010008D2F1DCF8D2F0E946F0E8C2F0E946E145E
:10202000CCCED23F89F160F4D03FC9F0D13F29F145
:10203000112309F442C00111A8CE8C2F8F7121C049
:10204000D33F39F1D43FA1F7112369F1CF718C2F20
:102050000E944D1463E08C2F0E944716AECE1123D0
:1020600041F0053008F0A9CE8C2F8F710E94911499
:10207000A4CE063008F0A1CEF7CF8C2F8F7111239C
:1020800069F20E944D1499CE8C2F8F711123C9F3E0
:10209000C5CF112329F08C2F8F710E9438148DCE5B
:1020A0000E9433148ACE81E00E945C16023008F44C
:1020B00084CE82E00E945C1680CE002359F0D93392
:1020C00009F0F4CE8FEF97EEE3E081509040E040CE
:1020D000E1F7EACE8C2F8F71A1CFDF91CF911F91C5
:1020E0000F91FF90EF90DF90CF90BF9008950F93E6
:1020F0001F93CF93DF93EC01688179818A810E94DD
:1021000089158C010E94E8140E94EA13B801CE01DF
:10211000DF91CF911F910F910C94760ECF93DF93A7
:10212000EC018B819C81892B29F0888199818923FD
:102130008F3F59F4DF91CF910895CE010E9477101F
:10214000CE01DF91CF910C94DF02CE010E942304D7
:102150008111F3CF0E94CB15882361F38A818823F4
:1021600049F382E0DF91CF910C945C160E94F21546
:102170000E94F5150E94111690E080E00E94640C08
:1021800090E080E00C947A0C0E94BB150C94B61081
:102190000E94E2150C94C410E92FE295EF70E25012
:1021A000EE3070F4F0E0E35CFF4D0C94CD1F803F07
:1021B00019F020F4883E20F481E00895843FE1F393
:1021C00080E00895883EC0F3813FD1F7F5CF93FBBF
:1021D000882780F908950E947F150C94CC10CF9326
:1021E000DF9300D000D00F92CDB7DEB70F900F90E5
:1021F0000F900F900F90DF91CF910895CF93DF93C1
:1022000000D000D000D0CDB7DEB726960FB6F89438
:10221000DEBF0FBECDBFDF91CF9108951F93CF9347
:10222000DF93C091A90116E08091AA018C1304C02C
:10223000DF91CF911F910895D0E01C9FF0011D9F69
:10224000F00D1124E555FE4F40815181628173816B
:10225000848195810E94FE102196C770E5CF409140
:10226000DB015091DC016091DD017091DE01809114
:10227000DF019091E0010C94FE101F93CF93DF9348
:102280008091E001807FA9F48091DD01882389F0AD
:102290008091A901C091AA016091DB017091DC01DC
:1022A000A091DE01B091DF01D62FD72316E0C8132D
:1022B00004C0DF91CF911F91089590E0109711F025
:1022C000DF3F19F401968770F2CF189F9001199F94
:1022D000300D1124F901E555FE4F41814713F2CF2E
:1022E00040814613EFCF42814111ECCF43815481AD
:1022F0004A1B5B0B483C510528F78091E0018F7029
:1023000080618093E001F901E055FE4F80818F707C
:10231000806180838BED91E00E948E10DF91CF91E0
:102320001F910C940E11AF92BF92CF92DF92EF9259
:10233000FF920F931F93CF93DF93CDB7DEB76197D3
:102340000FB6F894DEBF0FBECDBF8C0185E0F8015B
:10235000DE011D9601900D928A95E1F7F80140810A
:102360005181E2808BEDC82E81E0D82E6091DE0194
:102370007091DF016115710509F461C19091DB0174
:102380002091DC01892F82238F3F09F458C1A3805B
:10239000B480F090DD01F501E61BF70BFF2009F496
:1023A000FCC08091E001382F307FE83CF10508F057
:1023B000B2C0311179C0FE2C251323C0941321C063
:1023C000E1101FC08F7080618093E0010E942F1187
:1023D000C6010E948E108091E001F80185838F2D47
:1023E00061960FB6F894DEBF0FBECDBFDF91CF91DF
:1023F0001F910F91FF90EF90DF90CF90BF90AF9023
:102400000895AB2829F0842F85238F3F09F033C12D
:1024100080E0F82FF170DF2E80FF3CC08091A90191
:102420002091AA0136E0821315C04D875E878D8505
:102430009E850E947F15292F22952F702230F0F063
:10244000243018F59F70F1F0F8019581907FD1F458
:10245000D12C1EC090E0389FF001399FF00D11245F
:10246000E555FE4F6181651306C06081641303C0AA
:1024700062816E110FC001968770D5CF9F7011F0E9
:10248000882331F3805E883018F3C8010E948E10D3
:10249000FD2CA5CFEE2009F4A2CF8091E001816050
:1024A0008093E001F12C9BCF251306C0941304C048
:1024B000F801EE2009F48DC04D875E878D859E85DD
:1024C0000E94EB10882319F1EE2009F18091E001C0
:1024D000803270F02091DB013091DC0138872F834E
:1024E0001986BB86AA868C87CE0107960E948E101D
:1024F00086E0F801ABEDB1E001900D928A95E1F72D
:102500000E943D110E942F11FF24F39468CFC8014F
:102510000E948E10F9CF311113C07A2DB98AA88A82
:102520006E2D89890E94EF108BED91E00E948E1034
:1025300086E0F60111928A95E9F70E942F11B2CF39
:1025400025130FC094130DC0E1100BC0F801858353
:10255000C8010E948E1086E0F60111928A95E9F773
:102560003ECF4D875E878D859E850E94EB10882328
:1025700071F2EE2061F28091E001803208F4B8CF70
:102580002091DB013091DC013A8329831B82BD82DB
:10259000AC828E83CE010196A9CFE83CF10508F00C
:1025A00041C0FE2CEE2009F4B2CF25132AC09413AB
:1025B00028C08091E00180FD1BC0982F907FC1F062
:1025C000F8018583903F31F0982F907F905F8F7056
:1025D000892B8583C8010E948E1086E0F801ABED3F
:1025E000B1E001900D928A95E1F70E942F11F7CE8C
:1025F00086E0F801ABEDB1E001900D928A95E1F72C
:10260000EECE4D875E878D859E850E94EB108111F1
:102610006FCF8091E00181608093E001C8010E944A
:102620008E10DDCE7A2DB98AA88A6E2D89890E94F6
:10263000EF1086E0F60111928A95E9F7D6CFEE20E9
:1026400009F465CF4D875E878D859E850E94EB10CE
:10265000F82E882309F45BCF86E0F801ABEDB1E0FA
:1026600001900D928A95E1F78BED91E00E94770D34
:102670000E943D11BACF81E08E25CBCE88EC90E050
:1026800008951F93CF93DF93CDB7DEB72C970FB686
:10269000F894DEBF0FBECDBF4F83588769877A8716
:1026A0008B879C87CE0107960E949311882369F03F
:1026B0008A859B85892B39F04F815885842F852306
:1026C0008F3F09F071C016E05FC086E0FE013796CB
:1026D000DE01119601900D928A95E1F78A859B851E
:1026E000892B89F38F81988589238F3F61F320910E
:1026F000AA0130E0C9010196877099274091A9018C
:102700004817190671F40E94C8101092AA0110927D
:10271000A90186E0EBEDF1E0DF011D928A95E9F772
:10272000D2CF96E0929FD001939FB00D1124A55572
:10273000BE4FFE01319601900D929A95E1F780937C
:10274000AA010E940E11BFCF819FC001112485559F
:102750009E4F0E9493118823E9F0E091A9011E9FEA
:10276000F0011124E555FE4F408151816281738152
:10277000848195810E94FE108091A90190E00196CC
:10278000877099278093A9018091A9019091AA014E
:102790008913DACF2C960FB6F894DEBF0FBECDBFEB
:1027A000DF91CF911F91089569857A858B859C85EE
:1027B0000E94FE1088CF08950C94DB130E94DC1356
:1027C0006093120270931302809314029093150287
:1027D0000C94B61008950C94DE130F931F93009180
:1027E0001202109113022091140230911502602BF5
:1027F000712B822B932B1F910F910C94DE130F934F
:102800001F93009112021091130220911402309133
:10281000150260237123822393231F910F910C943F
:10282000DE130F931F930091120210911302209157
:1028300014023091150260277127822793271F9178
:102840000F910C94DE130C94DB130C9423140E9450
:10285000251460930E0270930F02809310029093E0
:1028600011020C94B61060E070E0CB010C942714B8
:102870000F931F9341E050E060E070E08A019B01FC
:1028800004C0000F111F221F331F8A95D2F7C90100
:10289000B8011F910F910C9427140F931F9341E0DF
:1028A00050E060E070E004C0440F551F661F771FC2
:1028B0008A95D2F780910E0290910F02A09110029A
:1028C000B09111028A019B01082B192B2A2B3B2B5B
:1028D000C901B8011F910F910C9427140F931F93F6
:1028E00041E050E060E070E004C0440F551F661FF7
:1028F000771F8A95D2F7CB01BA01609570958095C4
:10290000909500910E0210910F02209110023091CB
:10291000110260237123822393231F910F910C9442
:1029200027140F931F9341E050E060E070E004C073
:10293000440F551F661F771F8A95D2F780910E02AC
:1029400090910F02A0911002B09111028A019B0197
:10295000082719272A273B27C901B8011F910F9182
:102960000C9427140F931F9300910E0210910F02E5
:102970002091100230911102602B712B822B932B2E
:102980001F910F910C9427140F931F9300910E0227
:1029900010910F02209110023091110260237123D7
:1029A000822393231F910F910C9427140F931F934D
:1029B00000910E0210910F0220911002309111022D
:1029C00060277127822793271F910F910C9427145A
:1029D000089527E0929F800D1124982F977041E071
:1029E00001C0440F9A95EAF786958695869595E0FD
:1029F000899FF0011124EF51FE4F90E080E070E0DC
:102A00005191DF0111979B01082E02C03695279541
:102A10000A94E2F7217021952527242325272C935A
:102A200001968530910561F7089527E0929F800D0A
:102A30001124982F977086958695869525E0829F1C
:102A4000F0011124EF51FE4F50E040E080E0219171
:102A500030E0092E02C0369527950A94E2F72170DE
:102A60003327042E01C0220F0A94EAF7822B4F5F0E
:102A70005F4F4530510559F70895BF92CF92DF92CD
:102A8000EF92FF920F931F93CF93DF938C01C0902F
:102A90000E02D0900F02E0901002F090110280918F
:102AA000120290911302A0911402B0911502C82A4B
:102AB000D92AEA2AFB2ACFE1D0E0BC2ED701C601F1
:102AC0000C2E04C0B695A795979587950A94D2F7D2
:102AD00080FD0EC0219788F7B12C8B2DDF91CF910F
:102AE0001F910F91FF90EF90DF90CF90BF900895CE
:102AF000B8018C2F0E947404019761F3EECFCF933D
:102B0000DF93EC010E943D15BE01DF91CF910C9443
:102B100074041F93CF93DF93EB019091A801992345
:102B200031F0CB01DF91CF911F910C947F15882359
:102B300079F0CB010E943D15182F682FCE010E941D
:102B4000E914BE01812FDF91CF911F910C94740481
:102B5000CB010E941515182FF4CF682F809100012A
:102B6000909101010C946D17682F80910001909154
:102B700001010C946F1780910001909101010C9458
:102B80007117809116028595859585950895809198
:102B900016028770089590911602977081E009F4EB
:102BA00080E0089580912202089590912202892B5D
:102BB0008093220208958095909122029823909309
:102BC0002202089510922202089590912102892BE9
:102BD00080932102089580959091210298239093EB
:102BE0002102089510922102089510922002089562
:102BF00080911702089508950C94FB159091170287
:102C0000981721F0809317020C94FC150895809179
:102C10001702882329F01092170280E00C94FC150B
:102C20000895E0910001F0910101809122028083DA
:102C3000E0910001F0910101808190912102892BA6
:102C40008083E0910001F091010180819091200248
:102C5000892B808390911702992381F0E0910001E4
:102C6000F09101018081892B8083809100019091F6
:102C700001010E94251781110E9407168091000111
:102C8000909101010C94590C08950C94441698E00D
:102C9000899F90011124622B609316020E944D14AB
:102CA000809116028595859585950C944516109210
:102CB000160280E00C9445169091160280958923A7
:102CC00080931602282F277071F4282F082E000CED
:102CD000330B9217130639F08595859585950E94DB
:102CE0006E140C94571608956FEF7FEF90E080E01C
:102CF0000C94062090E080E00E94E21F21E08C3ED0
:102D00009E4F09F020E0822F089582E090E00C941D
:102D1000DA1F83E090E00C94DA1FCF9384E090E018
:102D20000E94DA1FC82F81E290E00E94DA1F982FDC
:102D30008C2FCF910895CF93C92F682F84E090E016
:102D40000E94E81F6C2F81E290E0CF910C94E81F65
:102D5000AB01BC018FE090E00C94FA1FAB01BC0109
:102D600083E190E00C94FA1F60E070E0CB010C94DA
:102D7000AE1660E070E0CB010E94A8160C94B41669
:102D80006CEE7EEF90E080E00E94062060E082E042
:102D900090E00E94E81F60E083E090E00E94E81F5E
:102DA0001092120210921302109214021092150245
:102DB00060E084E090E00E94E81F60E081E290E043
:102DC0000E94E81F60E085E090E00E94E81F60E05C
:102DD00086E090E00E94E81F6FEF87E090E00E949D
:102DE000E81F40E050E0BA0188E090E00E94FA1F3E
:102DF00060E08DE090E00E94E81F40E050E0BA0102
:102E000088E190E00E94FA1F60E087E190E00E9474
:102E1000E81F40E050E0BA018CE190E00E94FA1F08
:102E200060E080E290E00E94E81F40E050E0BA01DC
:102E300088E190E00E94FA1F0C94B9160C94C01619
:102E4000682F8EE090E00C94E81F9C012E5F3F4FAE
:102E5000AC01485F5F4F80E02417350709F40895FF
:102E6000F90191919F019923B9F38F5FF5CF662303
:102E700049F0FC01329608962191261729F0E817AF
:102E8000F907D1F780E0089581E008959C01FC01E5
:102E900032969FEF80E04191461751F09F3F19F421
:102EA000411101C0982F8F5F8630A9F79F3F09F429
:102EB0000895290F311D97FD3A95F9016283089510
:102EC000FC01329608962191261303C0DF01119769
:102ED0001C92E817F907B9F708950C9446170C945B
:102EE0006017029626E0FC0111922A95E9F70895F1
:102EF000089508950C9479170E947A1780914D02D5
:102F0000843049F11092240288E190E020E40FB669
:102F1000F894A895809360000FBE2093600080E035
:102F20000E946C040E947A1783B7817F846083BFFC
:102F300083B7816083BF7894889583B78E7F83BF82
:102F40000FB6F894A8958091600088618093600026
:102F5000109260000FBE08950895CF930E947817D5
:102F60000E9487060E94AC17C0E08C2F0E9440068A
:102F7000811105C0CF5FCA30C1F7CF91089581E0BC
:102F8000FCCF08950C94C1170E94C8100E944D0CEC
:102F90000E946C040C94C2171F921FB61F9211243A
:102FA0008F939F93AF93BF9380912402811113C09D
:102FB0008091430290914402A0914502B091460253
:102FC0004196A11DB11D8093430290934402A093AA
:102FD0004502B0934602BF91AF919F918F911F9090
:102FE0001FBE1F90189582E084BD93E095BD9AEFB7
:102FF00097BD80936E0008952FB7F8948091430297
:1030000090914402A0914502B09146022FBF0895CD
:103010002FB7F89460914302709144028091450269
:10302000909146022FBF08959C014FB7F89480916C
:10303000430290914402A0914502B09146024FBFD5
:10304000821B930B089578941F921FB61F92112430
:103050008F939F93AF93BF938091430290914402CB
:10306000A0914502B09146020196A11DB11D809329
:10307000430290934402A0934502B0934602BF914D
:10308000AF919F918F911F901FBE1F90189587E75A
:1030900097E7909301088093000888E19AE00FB6C3
:1030A000F894A895809360000FBE90936000FFCFC6
:1030B0000C9464070E9487068FE39CE90197F1F75F
:1030C00000C000000E94870680E00E94400680FF4A
:1030D00004C00E9458180C94471808950E947A164C
:1030E000811102C00E941E170E9485168093230240
:1030F0000E948D1690934802809347020E94891681
:10310000682F70E090E080E00E94EB1360910E0267
:1031100070910F0280911002909111020C9425146D
:1031200080912D0208950895CF93DF9300D00F92E0
:10313000CDB7DEB790914D02943011F589837B8332
:103140006A839093E9008FEF9091E800815095FD9C
:1031500006C095ED9A95F1F700008111F5CF8091A9
:10316000E80085FF0DC050E040E063E070E0CE0174
:1031700001960E94ED1A8091E8008E778093E80016
:103180000F900F900F90DF91CF910895BC0184E0D4
:103190000C949418BC0183E00C949418CF93DF93A3
:1031A000EC0181E08093E9008FEF9091E80081507D
:1031B00095FD06C095ED9A95F1F700008111F5CFC8
:1031C0008091E80085FF14C050E040E068E070E0C6
:1031D000CE010E94ED1A8091E8008E778093E8007E
:1031E00088E0FE01A5E2B2E001900D928A95E1F738
:1031F000DF91CF910895CF93FC01603221F580914A
:103200004D02843001F5C091E900CF702091EC00AF
:10321000922F917020FD90E8C92B82E08093E90005
:103220008091E80080FF0CC050E040E060E270E078
:10323000CF010E94ED1A8091E8008E778093E8001C
:10324000CF70C093E900CF91089580914C02811115
:1032500009C00E94CC1C0E94291D8091E20084605C
:103260008093E200089510924C0208950895089505
:103270000C94C41742E061EC81E00E94481C42E2D9
:1032800061EC84E00E94481C42E261EC82E00E9412
:10329000481C42E260EC83E00C94481C80914F0291
:1032A000833009F461C030F48130D1F1823009F407
:1032B0009DC008958A3009F489C08B3009F46FC02D
:1032C000893009F050C080914E02813209F04BC024
:1032D0008091520290915302009719F0029709F0E1
:1032E00042C08091E800877F8093E8008091E800E9
:1032F00082FF35C09091F3008091F200029729F48B
:103300008091F1008B7F813021F48091F1008093D6
:103310002D028091E8008B778093E8000C947C1C50
:1033200080914E02813AF9F48091E800877F809382
:10333000E8008091520290915302892B61F468E079
:1033400085E292E070E00E948B1B8091E8008B7711
:103350008093E800089560E090E080E0F3CF8091F2
:103360004D028111C3CF089580914E02813AD9F761
:103370008091520290915302892BA9F78091E80025
:10338000877F8093E8008091E80080FFFCCF8091E8
:103390000C018093F1008091E8008E77BDCF809181
:1033A0004E02813201F78091520290915302892B93
:1033B000D1F68091E800877F8093E8000E947C1C12
:1033C0008091500280930C010C94C81080914E02A1
:1033D000813249F68091E800877F8093E8000E945F
:1033E0007C1C8091510280932E02089580914E02A0
:1033F000813A09F0B8CF8091E800877F8093E80098
:103400008091E80080FFFCCF80912E02C2CFCDB723
:10341000DEB7A0970FB6F894DEBF0FBECDBF84B75E
:10342000877F84BF0FB6F894A8958091600088616B
:1034300080936000109260000FBE80E890E00FB6AD
:10344000F89480936100909361000FBE0E949E0CDF
:103450000E94CC1C0E94291D8091E2008460809310
:10346000E20078940E94B21F0E94AA0C82E091E0D0
:103470000E94480C13E080914D02853059F00E9463
:10348000B40C80914D02843091F00E94A80C0E94EF
:10349000A90CF1CF0E947C1780914B02882359F32D
:1034A0000E94AD17882339F30E94D71AE4CF1093F6
:1034B000E9008091E80082FFE8CF8091E80090E089
:1034C00085FF09C050E040E060E270E0CE01019667
:1034D0000E943C1B91E08091E8008B778093E8008C
:1034E000992399F260E2CE0101960E94C607CDCFE2
:1034F0000C947A1A292F33272330310521F168F4EF
:103500002130310509F449C02230310509F44AC09F
:1035100090E080E030E020E029C02132310581F1E7
:1035200022323105A9F76330710590F7FB01EE0FE8
:10353000FF1FED57FE4F2081318160587E4FFB0108
:10354000808190E013C099278130910599F0009710
:1035500041F08230910589F00397D1F6ECE7F3E072
:1035600002C0ECE9F3E0849190E09F01FA0131831D
:1035700020830895E0E9F3E0F6CFE2E8F3E0F3CF4B
:103580006330710528F6660F771FFB01E757FE4F82
:103590002081318189E090E0E9CF82E190E02BEF5A
:1035A00033E0E4CF8BE590E020EA33E0DFCF80E149
:1035B00089BD82E189BD09B400FEFDCF8091D800AC
:1035C0008F7D8093D8008091E00082608093E0003E
:1035D0008091E00081FDFCCF0895AF92BF92CF9221
:1035E000DF92FF920F931F93CF93DF936C01EB0158
:1035F0008A010E949B1CF82E811123C00115110520
:1036000039F0F80180819181C81BD90BC80ED91EF1
:10361000B12CA12C2097A9F08091E80085FD22C053
:103620008091E8008E778093E80001151105A1F0E4
:10363000F80180819181A80EB91EB182A08285E037
:10364000F82E8F2DDF91CF911F910F91FF90DF907A
:10365000CF90BF90AF9008950E949B1C8823D1F219
:10366000F82EEFCFF60181916F018093F100219741
:10367000FFEFAF1ABF0ACECFAF92BF92CF92DF92C9
:10368000FF920F931F93CF93DF936C01EB018A019D
:103690000E949B1CF82E811123C00115110539F0E1
:1036A000F80180819181C81BD90BC80ED91EB12C9D
:1036B000A12C2097A9F08091E80085FD22C080917F
:1036C000E8008B778093E80001151105A1F0F8015F
:1036D00080819181A80EB91EB182A08285E0F82E6A
:1036E0008F2DDF91CF911F910F91FF90DF90CF90A1
:1036F000BF90AF9008950E949B1C8823D1F2F82EB2
:10370000EFCF8091F100F60181936F012197FFEFD8
:10371000AF1ABF0ACECFFC0180915402909155029E
:1037200086179707A0F06115710529F49091E800BC
:103730009E779093E80090E06115710551F4911126
:1037400008C08091E80082FF34C080E00895BC0189
:10375000F2CF80914D028823C1F18530C1F1809173
:10376000E80083FD30C08091E80082FDEACF8091BF
:10377000E80080FFE1CF8091F3002091F200382F24
:103780006115710519F02830310558F091E02830A5
:10379000310509F090E02091E8002E772093E800B1
:1037A000CBCF81918093F100615071092F5F3F4F22
:1037B000E7CF80914D02882341F0853041F0809120
:1037C000E80083FFBECF81E0089582E0089583E0A2
:1037D0000895FC0180915402909155028617970735
:1037E000A0F06115710529F48091E8008E7780932F
:1037F000E80090E06115710551F4911108C08091C5
:10380000E80082FF35C080E00895BC01F2CF8091CE
:103810004D028823C9F18530C9F18091E80083FD0C
:1038200031C08091E80082FDEACF8091E80080FFFE
:10383000E1CF8091F3002091F200382F61157105DE
:1038400019F02830310558F091E02830310509F0A1
:1038500090E08091E8008E778093E800CBCF849150
:103860008093F1003196615071092F5F3F4FE6CF91
:1038700080914D02882341F0853041F08091E8002D
:1038800083FFBDCF81E0089582E0089583E008952D
:10389000982F973028F08F708093E90081E0089589
:1038A0009093E900242F762F50E0981731F0709113
:1038B000EC002091ED005091F00021FD02C09F5FCF
:1038C000E8CF3091EB003E7F3093EB003091ED007C
:1038D0003D7F3093ED003091EB0031603093EB0091
:1038E0007093EC002093ED005093F0002091EE00D7
:1038F00027FDE5CF80E0089580914E0287FF13C039
:103900008091E80082FF06C08091E8008B77809369
:10391000E80004C080914D028111F2CF089580919A
:103920004D028823D9F38091E80080FFF8CF809181
:10393000E8008E77ECCF2091E4003091E50095E629
:10394000A9012091EC00822F817020FF06C0809198
:10395000E80080FF06C080E008952091E80022FD85
:103960001AC080914D02882389F0853089F08091BA
:10397000EB0085FD0FC02091E4003091E500421777
:103980005307F9F29150E1F684E0089582E008953A
:1039900083E0089581E008950E943A1D0E94421D2F
:1039A000E0EEF0E0808181608083E8EDF0E08081EE
:1039B0008F77808319BCA7EDB0E08C918E7F8C93BC
:1039C00080818F7E808310924C0208950F931F9305
:1039D000CF93DF930E943A1D0E94421DC8EDD0E0B4
:1039E00088818F77888388818068888388818F7DAC
:1039F000888319BC10924D021092490210924B021A
:103A000010924A0200EE10E0F80180818B7F8083E3
:103A100088818160888342E060E080E00E94481CE9
:103A2000E1EEF0E080818E7F8083E2EEF0E0808145
:103A300081608083808188608083F80180818E7FAF
:103A40008083888180618883DF91CF911F910F915E
:103A50000895E8EDF0E080818F7E8083E7EDF0E06F
:103A600080818160808384E082BF81E080934C020A
:103A70000C94E61CE8EDF0E080818E7F808310924C
:103A8000E20008951092DA001092E10008951F926A
:103A90000F920FB60F9211242F933F934F935F9382
:103AA0006F937F938F939F93AF93BF93EF93FF9306
:103AB0008091E10082FF0BC08091E20082FF07C08D
:103AC0008091E1008B7F8093E1000E94B11F809183
:103AD000DA0080FF19C08091D80080FF15C0809166
:103AE000DA008E7F8093DA008091D90080FF96C043
:103AF00080E189BD82E189BD09B400FEFDCF81E08E
:103B000080934D020E9425198091E10080FF19C029
:103B10008091E20080FF15C08091E2008E7F80934B
:103B2000E2008091E20080618093E2008091D80001
:103B300080628093D80019BC85E080934D020E947A
:103B400037198091E10084FF2BC08091E20084FF4F
:103B500027C080E189BD82E189BD89B5982F917028
:103B600080FFFBCF8091D8008F7D8093D80080911B
:103B7000E1008F7E8093E1008091E2008F7E809350
:103B8000E2008091E20081608093E200809149022E
:103B9000882309F449C084E080934D020E943819BB
:103BA0008091E10083FF29C08091E20083FF25C05E
:103BB0008091E100877F8093E10082E080934D0255
:103BC000109249028091E1008E7F8093E100809104
:103BD000E2008E7F8093E2008091E200806180931A
:103BE000E20042E060E080E00E94481C8091F0002A
:103BF00088608093F0000E943619FF91EF91BF9189
:103C0000AF919F918F917F916F915F914F913F9174
:103C10002F910F900FBE0F901F90189519BC109206
:103C20004D020E94331970CF8091E30087FD93E02D
:103C300090934D02B3CF1F920F920FB60F921124A3
:103C40002F933F934F935F936F937F938F939F93A4
:103C5000AF93BF93CF93DF93EF93FF93D091E9009E
:103C6000DF708091EC00C82FC17080FDC0E8109219
:103C7000E9008091F000877F8093F00078940E94A3
:103C80005F1E1092E9008091F00088608093F00040
:103C9000CD2BCF70C093E900FF91EF91DF91CF91D1
:103CA000BF91AF919F918F917F916F915F914F9154
:103CB0003F912F910F900FBE0F901F9018951F935B
:103CC000CF93DF93CDB7DEB7AA970FB6F894DEBFD8
:103CD0000FBECDBF8EE492E02091F100FC01219354
:103CE000CF01F2E086359F07B9F70E944E19809107
:103CF000E80083FF1EC180914E0290914F029A30DE
:103D000008F017C1E92FF0E0E55BFF4D0C94CD1FE3
:103D1000803899F0823809F00CC1809152028F707E
:103D2000873008F006C18093E9008091EB0085FBA5
:103D3000882780F91092E90006C080914A0290918C
:103D40004B02911182609091E800977F9093E80078
:103D50008093F1001092F1008091E8008E77E5C029
:103D6000882309F4D3C0823009F0E3C08091500267
:103D70008111D6C0809152028F702FEF280F26300C
:103D800008F0D7C08093E9002091EB0020FFC8C065
:103D9000933031F48091EB0080628093EB00C0C0DF
:103DA0009091EB0090619093EB0021E030E001C036
:103DB000220F8A95EAF72093EA001092EA00809198
:103DC000EB008860EACF8111B4C0109150021F77D8
:103DD0008091E3008078812B8093E3008091E8005C
:103DE000877F8093E8000E947C1C8091E80080FF20
:103DF000FCCF8091E30080688093E30082E01111A2
:103E000083E080934D0295C08058823008F091C0C5
:103E100080915002909151028C3D23E09207A1F5D0
:103E200083E08A838AE289834FB7F894DE01139690
:103E300020E03EE051E2E32FF0E050935700E491A0
:103E400020FF03C0E295EF703F5FEF708E2F90E090
:103E5000EA30C0F0C7968D939D932F5F243159F7B8
:103E60004FBF8091E800877F8093E8006AE270E0AE
:103E7000CE0101960E948B1B8091E8008B77809386
:103E8000E80057C0C096E7CF60915202709153028C
:103E9000AE014F5F5F4F0E94781ABC01892B09F475
:103EA00048C09091E800977F9093E80089819A81BB
:103EB0000E94E91BE1CF8038E1F58091E800877F1F
:103EC0008093E800809149028093F10045CF8111F1
:103ED00030C090915002923060F58091E800877F69
:103EE0008093E800909349020E947C1C80914902D3
:103EF000882311F084E005C08091E30087FDFACFAC
:103F000081E080934D020E943A1913C080915002C3
:103F1000813079F481E0933009F080E080934B02A6
:103F20001092E9008091E800877F8093E8000E946A
:103F30007C1C8091E80083FF0AC08091E800877FA5
:103F40008093E8008091EB0080628093EB00AA965A
:103F50000FB6F894DEBF0FBECDBFDF91CF911F919A
:103F600008950895CF9380914D028823A1F0C091C8
:103F7000E900CF709091EC00892F817090FD80E86E
:103F8000C82B1092E9008091E80083FD0E945F1E1B
:103F9000CF70C093E900CF910895EE0FFF1F0590F9
:103FA000F491E02D099469279627692778278727B8
:103FB00078270895F999FECF92BD81BDF89A992787
:103FC00080B50895A8E1B0E042E050E00C940E20E6
:103FD000262FF999FECF92BD81BDF89A019700B4C2
:103FE000021639F01FBA20BD0FB6F894FA9AF99A62
:103FF0000FBE08950396272F0E94E91F0E94E81F15
:10400000252F0E94E91F242F0C94E91F0196272FCA
:104010000E94E91F0C94E81FDC01CB01FC01F99917
:10402000FECF06C0F2BDE1BDF89A319600B40D9204
:1040300041505040B8F70895F894FFCFD807E507EE
:104040000C08180823082E083108310831087A08AE
:104050007D083408380840084D085A085D08600893
:104060006D08B00EB00E080F080F5A0FDD0EDD0EF2
:10407000DD0E760F021011101110D710D710E010BE
:10408000E010E210E010E010E010D710D710E710B9
:10409000E010E010E710881EB01E991FB01E991F97
:0A40A000E31E041F991F5B1F671F3A
:1040AA0018029018CE189318CA18C61801E200E927
:1040BA0000EA00B500B600B700CD008301CC008A43
:1040CA0001920194012102230224022502260227D9
:1040DA00022A02B300B4006F007000818283363274
:1040EA0033F6F5F490919331F797C634356694E236
:1040FA0000E900EA00B500B600B700CD008301CCA4
:10410A00008A019201940121022302240225022637
:10411A000227022A02B300B4006F00700081828372
:10412A0040223261040D042F04B203CB03EB0300D7
:00000001FF
